:10000000A88C0020A9160200C74F03009516020015
:10001000951602009516020095160200951602002C
:100020000000000000000000000000000D180200A9
:100030009516020000000000A517020095160200A8
:10004000AD190200AD190200AD190200AD19020090
:10005000AD190200AD190200AD190200AD19020080
:10006000AD190200AD190200AD190200AD19020070
:10007000AD190200AD190200AD190200AD19020060
:10025000AD19020021750300AD190200AD190200AD
:10026000AD190200AD1902000B750300AD190200B3
:10027000AD190200AD190200AD190200AD1902005E
:10028000AD190200AD190200AD190200AD1902004E
:10029000AD190200AD190200AD190200AD1902003E
:1002A000AD190200AD190200AD190200AD1902002E
:1002B000AD190200AD190200AD190200AD1902001E
:1002C000AD190200AD190200AD190200AD1902000E
:1002D000AD190200AD190200AD190200AD190200FE
:1002E000AD190200AD190200AD190200AD190200EE
:1002F000AD190200AD190200AD190200AD190200DE
:10030000AD190200AD190200AD190200AD190200CD
:10031000AD190200AD190200AD190200AD190200BD
:10032000AD190200AD190200AD190200AD190200AD
:10033000AD190200AD190200AD190200AD1902009D
:10034000AD190200AD190200AD190200AD1902008D
:10035000AD190200AD190200AD190200AD1902007D
:10036000AD190200AD190200AD190200AD1902006D
:10037000AD190200AD190200AD190200AD1902005D
:10038000AD190200AD190200AD190200AD1902004D
:10039000AD190200AD190200AD190200AD1902003D
:1003A000AD190200AD190200AD190200AD1902002D
:1003B000AD190200AD190200AD190200AD1902001D
:1003C000AD190200AD190200AD190200AD1902000D
:1003D000AD190200F5740300AD190200AD19020059
:1003E000AD190200AD190200AD190200AD190200ED
:1003F000AD190200AD190200AD190200AD190200DD
:10040000AD190200AD190200AD190200AD190200CC
:10041000AD190200AD190200AD190200AD190200BC
:10042000AD190200AD190200AD190200AD190200AC
:10043000AD190200AD190200AD190200AD1902009C
:10044000AD190200AD190200AD190200AD1902008C
:10045000AD190200AD190200AD190200AD1902007C
:10046000AD190200AD190200AD190200AD1902006C
:0C047000AD190200AD190200AD19020028
:10048000054B00221B78826001330260034A426000
:10049000C371FF2303727047B810002028010800C1
:1004A000064A074B02604FF418729B78828008223C
:1004B000C371002382710372704700BFE3E701003C
:1004C000B8100020074A9378D2781344064A026095
:1004D0004FF4B872C371FF238280042203728271C9
:1004E000704700BFB8100020AF97010008B5012287
:1004F000094B83F82A2005F0E9FA08F0C3FC1BF049
:10050000A8FB06490D2000F04DFD05490E20BDE871
:10051000084000F047BD00BFB810002025050000CE
:10052000C504000010B5044601F0AAF8074B00020C
:10053000074A93F8283000F51A7022600822E37108
:10054000FF23A080A271237210BD00BFB81000204D
:10055000999701002DE9F341C41D0028064624F0B7
:1005600007040CBF0020204600F02EFD071E04DA11
:100570006FF00B0002B0BDE8F081374DE988A88824
:1005800003316B7A03302A7A89B280B217F0B6FC55
:100590000028EDDB3C44A978EB78002E04F103043D
:1005A000194424F0030400FB01F10CBF0020204695
:1005B00000F0B8FE20440EB90028D9DBEA7A0446E0
:1005C000B2B1EB7B697C13441944FF29D0D80330C6
:1005D000002EAA89C9B220F003040CBF00202046D7
:1005E00000F012FF0028C3DB04440EB9002CBFDB6F
:1005F000012000F0DFFCB0B1A97BA1B195F82B3050
:1006000033B340234FF481720734002E24F00704E3
:100610000CBF0020204604F093F80028A8DB044417
:100620000EB9002CA4DBAB7AFBB1EB7AB3B1073483
:10063000002EA97A24F007040CBF002020460AF0FF
:1006400043FC002894DB04447EB9002C0DDA8FE7CC
:1006500025232822D8E700BFB8100020012000F091
:10066000A9FC10B1AB7B002BE1D1734B1B6893B19C
:10067000A97D81B10334002EEA7D24F003040CBF70
:100680000020204698470028FFF672AF044416B9B0
:10069000002CFFF66DAF694B1B688BB1297C79B1DB
:1006A0000334002E24F003040CBF0020204698479A
:1006B0000028FFF65DAF044416B9002CFFF658AFD2
:1006C0005F4B1F68B7B1697CA1B10334002E2B7D4D
:1006D00024F0030408BF0020009318BF2046EB7CE1
:1006E000AA7CB8470028FFF643AF044416B9002C93
:1006F000FFF63EAF072000F05DFC98B1A97D89B1FF
:100700000334002E2A7E24F003040CBF0020204670
:1007100000F050FF0028FFF62BAF044416B9002C60
:10072000FFF626AFB6FA86F795F823007F09A0B149
:1007300003346B7FA97E24F0070419443B4644F040
:100740000404C9B2224600F075FF0028FFF610AF7E
:10075000044416B9002CFFF60BAF95F824100029BD
:100760004CD004F10708002EEA8C28F007080CBFD3
:100770000020404617F0D6FB041EFFF6F9AE4444B5
:10078000002E3ED1002CFFF6F3AEA97F002945D004
:1007900095F82230002B41D02A8C0734002E02F12C
:1007A000240224F007080CBF0020404692B217F044
:1007B000B9FB0028FFF6DCAE404416B90028FFF66E
:1007C000D7AE03302B7FA97E20F0070019443B46AB
:1007D00040F0040495F82200C9B2224600F01CFF44
:1007E0000028FFF6C5AE044486B9002CFFF6C0AE63
:1007F000EB6AF3B1C6B1EC620020BBE6002EC4D0B8
:100800008846E98C40460EF0F1FFBEE72A8C404650
:10081000A97F083292B20EF0EFFFE9E7002EE7D091
:10082000002211461046F6E728343FF5A1AE2046D7
:10083000A0E6002EE0D1FAE7AC000020B0000020D6
:10084000B40000201FB572B6194B1C6BECB9BFF396
:100850004F8F1849184BCA6802F4E0621343CB600B
:10086000BFF34F8F00BFFDE7B2FBF6F22B465D1CD6
:10087000002AF9D1DBB203F110056D4405F80C2C08
:100880000A2233B901A8A047E1E7024600230A265D
:10089000EDE7013BDBB203F110050DEB0506B0FB04
:1008A000F2F502FB1500303006F80C0C2846E8E79C
:1008B000B810002000ED00E00400FA0513B5124C5A
:1008C00068462389ADF80030E388ADF80430A3888A
:1008D000ADF8023007F0CEFB18B1FC219C20FFF7E9
:1008E000B1FF207D07F02AFC08B1FF21F6E7E07C8C
:1008F00007F01EFC10B14FF48071EFE794F8290067
:100900000CF096FE02B010BDB810002070B5054680
:1009100000285BD016F07EF918B94FF0FF3420465E
:1009200070BD15F0F5FFB0F5FA7FF6D8294C012619
:1009300029482563002500F0B9FA284684F8345088
:10094000257084F82B50E56284F82A500EF064FA82
:100950001A22294604F10F001EF0D9FB1B2308219F
:100960000322A3802846E3800223A1721F21637221
:10097000E375F72322722384FB23A2734922E384C5
:100980000A23A1812946E27484F82930A670E67012
:10099000E672A674267605F0EDF82A463146304612
:1009A00005F0A4F8044620B140F2AD319C20FFF7D9
:1009B00049FF0246014605F0C7F8EFF3108572B60D
:1009C00000F06EFE002DAAD162B6A8E76FF0150404
:1009D000A5E700BFB8100020BD08000038B51446D8
:1009E000002840F0EE80784D95F83430032B00F06D
:1009F000E58019B312B96FF0150038BD0139172918
:100A000000F2DF80DFE811F0180029002C0042001E
:100A10006C0075009400480078007B008E004E004A
:100A20005400620067009A009D00AC00AF00B20065
:100A3000A300B500B900D2001378AB700020FFF717
:100A400089FD0028B7BF012302236FF00B0085F852
:100A50003430A8BF85F83430CFE71378EB70EDE77A
:100A60001379002BC7D05379002BC4D01288FB2AEE
:100A7000C1D863881B3B9BB2E02BBCD81A2ABAD9D9
:100A80002368A2886B60514B9A80D7E71378EA7B82
:100A90009342B0D3EB72D1E71378EA7A9342AAD8A3
:100AA000EB73CBE71378EA7A9342A4D86B74C5E76B
:100AB0001378002B9FD05378013BDBB2F82B9AD8E8
:100AC000138892786B82424B9A70B7E710786875FA
:100AD0000CF098FDB2E71378002B8CD02B76ADE7A5
:100AE000012000F067FA237808B1012B83D9AB739A
:100AF000A4E71388AB81A1E71378AB759EE70720C5
:100B000000F058FA18B92378012B7FF674AF07204C
:100B100000F050FA18B12378002B3FF46CAF237823
:100B2000EB758BE71378082B3FF665AF2B7485E7E1
:100B30001388FF2B3FF65FAFAB727FE713786B76BE
:100B40007CE713780E2B3FF656AFAB7676E723683B
:100B5000204AC5F81E3063685360238913816DE70E
:100B60001378EB766AE713786B7767E713782B7760
:100B700064E7137885F8283060E704F0B1FF98B196
:100B8000007900F001026178207804F0AFFF0028BE
:100B90007FF433AF6378012B7FF650AF0EF084FD06
:100BA00000287FF44BAF26E70246ECE713785A1E85
:100BB000092A3FF620AF85F829303FE74FF0FF3094
:100BC0001BE76FF02C0018E7B8100020BC100020C5
:100BD000CA100020D6100020F8B50D46064630B3E6
:100BE00029B311F0070422D1124F97F83430012BAA
:100BF00002D16FF00B00F8BD032B02D14FF0FF3094
:100C0000F9E700F07DF80028F8D02846FFF7A2FCAD
:100C10000028EEDB1DF0CEFE3046F96A08F04CF9F4
:100C2000FFF74CFE0323204687F83430E3E76FF0EC
:100C30001500E0E7B810002010B5074C94F83430E8
:100C4000032B03D108F054F909F006F917F0EFF976
:100C5000002084F8340010BDB810002050B1074BBC
:100C600003F1140253F8041B934240F8041BF9D11A
:100C7000002070476FF01500704700BF9D09040009
:100C800008B5094B93F82B305BB108F0D9F8074948
:100C9000012000F087F906490020BDE8084000F077
:100CA00081B908F0AFF8F2E7B81000208104000025
:100CB000A104000008B50A4B93F82A300BB9FFF7DE
:100CC00015FC04F00DFFC1780120C1F3400104F0D0
:100CD00051FF10F05FFFBDE8084013F067BA00BF96
:100CE000B810002002680020014B1A60704700BF56
:100CF000F0100020014B1B68184700BFF0100020C7
:100D0000024B1868003818BF01207047F01000200F
:100D1000F7B504462D4E071D2C48376009F0B4F88E
:100D20000228054606D12949204616F039FA2846F8
:100D300003B0F0BD042842D13378092B0AD0262B0A
:100D40001ED03146204616F0A5FAB0F5817F2DD38E
:100D5000722112E005213E2016F0F4F90028F0D1AE
:100D6000F37801A93279684643EA0223ADF80030EE
:100D700016F06FFE0028CFD053210820FFF762FD48
:100D80001A213E2016F0DEF90028DAD17368694690
:100D900001A8C3F30F23ADF8043011238DF80630FA
:100DA00016F079FE0028B7D06521E6E70028B3D019
:100DB000A178207816F0C6F90028B8D1ACE7082849
:100DC000B5D10249204616F023FAB0E7F41000200E
:100DD000074B4FF0FF3141F6FF72C3E9001205499E
:100DE0000022C1E900221F21C3E90212704700BF9F
:100DF00040000020F81100203F280CD801380B4B90
:100E0000C0F3421200F01F0053F8223023FA00F022
:100E100000F001007047FF2806D04038044BC0F3B3
:100E2000421200F01F00EFE7012070474000002051
:100E3000F8110020074B0146006849681A4603C2B2
:100E400040F48C221A6041F0107242F4FF625A6042
:100E5000704700BF400000200246024B0068516806
:100E600003C37047F81100200246024B0068516826
:100E700003C370474800002008B5382800F1FF334D
:100E8000DBB205D108F09CF84078C0F3C00008BD83
:100E90005909054A03F01F0302EB81029068D8400C
:100EA00000F00100F3E700BF40000020014B186094
:100EB000704700BF0012002010B5FFF789FF1AF03D
:100EC000B3FA034B04461B6803B19847204610BD94
:100ED000001200200A8870B595B2C67CC2F30E02DB
:100EE0000488023602F118033444C35AA4B23344CE
:100EF0002344013BB3FBF4F303FB0422438892B287
:100F00009342044B8BBF2B40AB4313439BB20B80EC
:100F100070BD00BF0080FFFF4A1E062A08B50346C9
:100F2000084604D84FF4D1711520FFF78BFC094A0D
:100F3000914202D940F2A311F6E711B903B1196049
:100F400008BD2BB11B680022C3E901211A1D1A60DC
:100F50000430F5E7FAFFFF7F10B5114B00EB4104B9
:100F60001A786389B3FBF2F303FB0223013A1A44B4
:100F7000B2F5706F0279807828BF00231A440B18ED
:100F8000B2FBF0F100FB11215B1AB3FBF0F100FBA7
:100F9000113313446FEA43436FEA5343638110BD37
:100FA00004120020024B03EB80035960704700BF1E
:100FB00004120020034B03EB80035868003818BF6D
:100FC00001207047041200202DE9F04F10F0070AAD
:100FD00085B0054604D040F261111720FFF732FCBE
:100FE000534F04464FF0010B07F15406B146B0468B
:100FF00057F8043B8DF80BA03BB101A898479DF82A
:101000000A30082B01D9E821E7E79DF80B1041BB16
:1010100005B131604F4506F10406E9D1002D6ED0CF
:101020000022DFF810911427964689F8002058F81E
:1010300027A0013FBAF1000F54D09AF804609AF843
:1010400002C0FF2E5FD039460023481C37D19C4494
:10105000BCF1FF0F3ED90AB189F800E040F2271138
:10106000BBE79DF80AC04B1D60465A0004EB4303E2
:10107000022838BF0220441E40422344BDF80840E5
:101080006444CCF1000C0340013C04EA0C04B4F5C8
:10109000803F01D3F821A0E775B19A1A32609170B0
:1010A000148082F803B09DF80C00107101984FEA8B
:1010B000104C1081A2F806C004FB0134AAE758F8CE
:1010C000210028B190F804B0B34504BF80781B1804
:1010D0000139BAE7DBB2E6458AF804303CBF5FFA73
:1010E0008CFE01227B1CA2D10AB189F800E01426F3
:1010F00040F6FF6A58F82670B7B9013EFAD2601B75
:1011000005B0BDE8F08F0023E5E707EB410309F1E7
:1011100001093846A3F80AA0FFF71EFF5FFA89F11C
:10112000BB788B42F1D8E8E74FF00009F6E700BF43
:10113000081200200412002038B54FF6FF73024653
:101140000380184B03EB8103986DA8B18478037971
:10115000B3FBF4F104FB1133DBB2194600EB41059C
:10116000B5F90A50002D0EDB0131B1FBF4F504FB9B
:101170001511C9B28B42F1D1002038BD6381BDE8A1
:10118000384016F088BE00EB41046389C3F30E03B8
:101190001380C278002AF1D14FF4D5711720FFF7E0
:1011A00051FB00BF041200201C4B03EB810370B500
:1011B0009C6D054644B3030404D54FF4DC7117203D
:1011C000FFF740FB0146204616F048FEFF28014687
:1011D00004D02046BDE8704016F05DBEA078B5FB97
:1011E000F0F300FB1353DBB219460A1D04EB420671
:1011F000B6F90260002E09DB0131B1FBF0F200FB11
:101200001211C9B28B42F0D1002070BD8B4201D0C7
:101210000023E37004EB42025580DAE70412002059
:10122000094B03EB8103014610B59C6D204616F077
:1012300015FEFF28014604D02046BDE8104016F0F8
:101240002ABE002010BD00BF04120020F8B5104BCC
:10125000074603EB810301469C6D204616F0FEFD18
:10126000FF28054611D0E288238953EA024606D0BA
:101270000146204616F00FFE01463846B04720468C
:101280002946FFF769FE0020F8BD0520FCE700BFF6
:101290000412002038B50E4B0446827903EB82031A
:1012A000986D08B9052038BD8278E1799142F9D26C
:1012B0004B1CE37100EB41035D89B3F90A30002B4D
:1012C000F3DBA58016F0E7FD20600020EBE700BF10
:1012D0000412002008B5124B03EB81039A6D22B96A
:1012E00040F226211720FFF7ADFA9178831A481DA6
:1012F000A3EB40031088B3FBF0F3002B01DB994212
:1013000002DC40F22921EDE702EB4302B2F90A3098
:101310005089002B02DA40F22B21E3E708BD00BF21
:101320000412002070B5044610F003000E4603D0EE
:101330004E211820FFF786FAFFF7EEFD054624B18F
:10134000034831460460FFF7E7FD284670BD00BF43
:10135000B01200202DE9F14FDFF870B01E460746AD
:101360000D46DBF8003090469DF828A09DF82C90A3
:101370001BB960211820FFF765FA52460921404643
:1013800016F0ECFB4A4684B20921304616F0E6FB23
:1013900081B2DBF80000214416F034FD386018B942
:1013A000286001B0BDE8F08F04445346414609224D
:1013B0002C60386816F095FB4B46092231462868A8
:1013C00001B0BDE8F04F16F08CBB00BFB01200209A
:1013D00070B50E46044616F0D4FB0546304616F0AE
:1013E000D0FB044B2A1821461868BDE8704016F05F
:1013F0002EBD00BFB0120020024B186808B116F0D5
:10140000F5BC7047B01200201F2AF8B504461346F9
:101410000ED89200033222F00303B3F5803F2DD2A1
:10142000184DACB1A00710D05F210920FFF70AFAD0
:10143000FF2B4FEA420204D9FF339A42A8BF1A4653
:10144000E8E77C2AB8BF7C22E4E729706C602B8136
:1014500022F0030228230127120403FB01F06B682A
:101460000025120CEEB2B14200D8F8BD14B1261816
:101470001F705E60104401352833F3E74FF0FF30F2
:10148000F3E700BFB4120020154A002170B553687D
:101490001578C8B2854203D8AB210920FFF7D2F9ED
:1014A0001C461846013114F8286B0EB92346F0E7A4
:1014B0000021997001241289996103F126055C705D
:1014C0009208D96103F11E04596824F8022FA5423D
:1014D00043F8041F1144F8D100234361037070BD29
:1014E000B41200204B782DE9F04106460C4602F07C
:1014F000040702F0FB05E3B1A5BBFF23A3707B0843
:1015000004EB57073A7D032A02D1022D18BF01339D
:10151000E2180121117503F10C01002204EB830391
:1015200024F811205B68A27030463360B280BDE8B9
:10153000F081002DE1D1012301F11E028D612046D1
:101540004B7004F1260C1A4BCD611B8949689B082E
:1015500022F8023F944540F8041F1944F8D10023B3
:101560006361CAE7D1F8048014220021A0186170D9
:101570001DF0CDFD0E4B1B89B3F5FF7F0FD25A082E
:101580009B1A9BB208EB0301C4F804802384A1607A
:101590006284C4F80C80A3842161E284ADE7B3F5D2
:1015A000EE6F4FF0FF02EBD940F27263EAE700BF43
:1015B000B41200202DE9F84305460C46F72005211A
:1015C000914616F0CBFA061E21DB1DB906FB04F08E
:1015D000BDE8F88315F0030703D098211920FFF721
:1015E00031F9DFF83080C8F81050A8F81460BBB2A9
:1015F0009C42EBD9B8F814504B46D8F8100005229D
:10160000F72107FB0500013716F06BFAEFE74FF003
:10161000FF30DDE7C812002007B5CDE900230B46F7
:1016200003490246081D16F0DCFC03B05DF804FB1C
:10163000E012002013B5064CCDE900230B4602460C
:1016400004F1080104F10C0016F0CBFC02B010BD4F
:10165000E012002008B54B1E032B03D92321902054
:10166000FFF7F0F80028054A0CBF05230C2303EB15
:101670008103053323F00103137008BDF01200202D
:10168000014B1878704700BFF0120020034B00F2A6
:1016900062201B7801FB0300704700BFF01200209E
:1016A0001F4B4FF0FF3000211A6801235360C2F82E
:1016B0000803C2F80015C2F804351A4A12685360CC
:1016C000C2F80803C2F8001540F6FE71164A174822
:1016D000C2F80815B0F90020002A0CDB510902F00D
:1016E0001F02934001F12002114941F82230BFF35B
:1016F0004F8FBFF36F8FB0F90030002B09DB5A0911
:10170000012103F01F03994002F16003084A42F8E7
:101710002310054B40F6FE72C3F80825704700BF42
:10172000981E0020941E002000200850AC1E0020AF
:1017300000E100E00A4606483D2302F8033BC36887
:10174000C1F803300369536043699360704700BF79
:10175000F8120020024B5A8C02435A845B6A1847E5
:10176000F8120020014B00215B6A1847F812002094
:1017700010B5154C0CF05EFF0CF0C2F9208DFFF790
:10178000F1FF237E63B12246104904F1190052F89B
:101790000C3BE36063685360A36893601BF075FFC4
:1017A0000B4B228D93E8030009F0BEFB236B1888D6
:1017B00009F040FBA36B94F8341094F83500984777
:1017C000002384F83C3010BDF812002035170000CB
:1017D00024130020034B93F83C300BB1FFF7C8BF34
:1017E000704700BFF812002070B5254C0646256BE7
:1017F000636C95F89420236494F8483095F875103C
:1018000003EB82002EB9FF2803D195F874308B4288
:1018100001D00CF08BFD95F8943053B3E06C0CF0D4
:10182000EBFF94F82C30E16C003B206C18BF0123D7
:1018300084F87030D5E93C23C4E918230CF0E4F8AF
:101840005EB995F87530033B012B2B8F8CBF0020C0
:101850002820184480B20DF02FF8A88E0CF0D8FC88
:1018600095F8741000200DF06FF8022384F83C30D6
:1018700070BD206C0CF0C0FF0CF042F9E0E700BF37
:10188000F81200200138C0B2032808B504D940F28C
:101890009D410620FEF7D6FF014B185C08BD00BF36
:1018A00007A2030008B5094B93F83C20022A04D094
:1018B00040F24F212720FEF7C5FFDA7A42F00102FD
:1018C000DA72BDE80840FFF753BF00BFF8120020EE
:1018D00003280B4B10B5044605D19A6FD278022A23
:1018E00001D1002010BDD86F16F0CAF90028F9D137
:1018F000032CF6D007F086FC80F00100C0B2F1E7BF
:10190000F812002038B52F4C054694F82C307BB1E6
:1019100001280DD1638C18070AD5A26F137803F044
:101920000303032B04D1D378022B01D1012038BD4E
:101930000129FBD8D4F88030284698470028F5D0F4
:1019400094F834000028F1D194F82C301BB9012D03
:1019500003D01846EBE7002DE9D194F8845025B167
:1019600094F88500FFF7B4FF0546606C1BF0AEFBF2
:10197000D4F88830ABB9B4F88C30B3FA83F35B0990
:1019800094F82C10628C71B191070CD5A26F13786A
:1019900003F00303032BC9D1D078023818BF01200C
:1019A000C5E70123ECE7002AC0D1012814BF0023BA
:1019B00003F0010343EA050080F0010000F001009C
:1019C000B5E700BFF81200202DE9F043334C85B095
:1019D0000746884694F83C30012BDEB204D040F232
:1019E00004512720FEF72EFF256B02A8A16F16F0E9
:1019F00020FB95F884309DF8089053B10021042015
:101A000085F88410FFF7A6FE94F82C300BB185F80A
:101A10008660B9F1030F29D0BDF80C30002B18BF38
:101A2000022695F8943085F88A60CBB194F82C3072
:101A3000216B003B94F8486091F8750018BF0123B2
:101A400084F87030D5E93C23C4E91823FFF71AFF66
:101A50000022034612490092022032460BF002FF98
:101A60006FB105B0BDE8F043FFF782BE95F88A304C
:101A70001BB9A16F0220FFF76DFE0326D1E7B8F175
:101A8000000FEED039463846FFF73CFF0028E8D17A
:101A900005B0BDE8F043FFF7A7BE00BFF812002075
:101AA0004813002010B5094CD4F8883023B940F20F
:101AB000F6412720FEF7C6FEB4F88C201846216CAC
:101AC000033215F071FA206410BD00BFF812002037
:101AD0002DE9F341714C0023256B8DF8053095F805
:101AE000741058B995F8942094F8483003EB8203A9
:101AF000FF2B03D195F875308B4202D0FF200CF0FC
:101B000015FC95F88A30032B00F2BB80DFE803F068
:101B1000023598AB94F88E306148ADF80630A5F8E0
:101B2000643007F045FB58B10121A36F85F885109B
:101B3000DB781B2B1DD105F110000CF043FC18E0E5
:101B40000DF105020DF10601E06F16F041F8A067F6
:101B500098B195F8CF3083B99DF805302BB9038043
:101B600001218370A06F1BF0A1FAA36FBDF80620BE
:101B70005A70012384F88F3001E04A4BA367A76FA6
:101B800095F88B203B78D20003F0030603F0F303B3
:101B900002F008023046134395F88C20920002F0C0
:101BA000040213433B70FFF793FE3B7823F01003CE
:101BB00043EA00133B70A06F90F801801BF08AFA93
:101BC00095F89330071E18BF0127002B5CD0B8F1A1
:101BD000000F59D0E06C0CF00FFE94F82C30E16C43
:101BE000B3FA83F3A06F5B0984F87030D5E93A2328
:101BF000C4E918233A460DF03FF818B9A16FE06C1C
:101C00000BF096FE304616F041FAE88E0CF000FB21
:101C100095F87510012001250CF096FEA06F84F850
:101C200093501BF053FAA36F84F884001B7884F858
:101C30003C5003F0030384F8853002B0BDE8F08126
:101C4000B5F864300DF105020DF10601E06FADF855
:101C5000063015F0BDFFA06700288AD140F2F121BF
:101C60002720FEF7EFFD0E4807F0A2FA10B940F268
:101C7000FB21F5E7A36FDB781B2B7FF47AAF012103
:101C800059E740F20931EBE7A06F0CF0B5FD0BF01E
:101C900037FF3946A06F1CF0B7FEB3E7F8120020FB
:101CA0007013002088130020064B10B593F83C20D9
:101CB00002F0FF0422B91C7609F02EF9204610BD6F
:101CC0000C24FBE7F81200200A4B0B4A70B50646BD
:101CD0000D461A60FFF7E8FF18B1F4212720FEF740
:101CE000B1FD064C012104F190001BF0DFF96664A0
:101CF000E56470BDB800002048240000F812002000
:101D0000024B012283F89420704700BFF812002094
:101D1000F0B585B09A4C02AE0A9F86E8030094F8AD
:101D20003C1001F0FF0511B90AB103B127B940F227
:101D300083112720FEF786FD96E8030004F12C0CA2
:101D400084F8945084F8345084F8955084F83550D1
:101D500084F8935084F88F50658425856262C4F8B6
:101D60008030A7638CE80300256B0CF04DFB0BF073
:101D7000C7FE95F97C000CF0ADFBAE6A286A0CF04A
:101D8000AFFB30460CF01CFD95F8A4000CF0B2FB44
:101D900094F82C60002E40F0A7801CF004FB95F80E
:101DA0007420784B4FF47A7153F8223003F5FA73AC
:101DB000B3FBF1F35433191830460CF027FC724B87
:101DC000724E05F5847718680CF000FD6B69E367C7
:101DD000AB69C4F8983005F1F8031868083353F874
:101DE000041C3246BB4203C21646F6D15968684A03
:101DF000D5F8080103C2226B92F88E3092F8746015
:101E0000A3F12601012903D992F88F10262976D152
:101E100094F82C30002B6FD192F80A12304616F04D
:101E200025F9064605F13C07314638461BF02FFDE3
:101E300031461AF0AFFDB5F8483095F87510834279
:101E400028BF0346384684F88E301BF0CEFC95F848
:101E5000751095F894700429B5F8506008BF0321F7
:101E60001AF098FD0FB9043080B2864228BF0646AA
:101E7000F6B284F89C6008F0FFF828B108F002F987
:101E8000B04238BF3046C6B294F82C7084F848602F
:101E9000002F5AD195F893308BB1012395F8740037
:101EA00084F87030D5E93A23C4E91823FFF7EAFC37
:101EB000FB2203463549042000970BF0D3FC012098
:101EC000FFF706FE002323606360A360B5F8883047
:101ED00063802B88238095F8A4302371AB6F0BB1FE
:101EE00001221A6005B0F0BD1CF05DFA95F875206E
:101EF00000F17601012060E792F8A2128EE7213B03
:101F0000012B11D8242911D094F82C30CBB192F8A0
:101F10002E315A0713D413F001017FF47FAFC3F3BE
:101F200040035B00D9B279E724290AD194F82C3018
:101F30003BB192F82E3192F86D201340E9E704216D
:101F40006CE7032E08BF04266CE795F8943093B134
:101F5000012395F8750084F87030D5E93C23C4E975
:101F60001823FFF78FFC0022034608490092022045
:101F700032460BF077FC0120FFF736FCA2E700BFEA
:101F8000F812002044A50300B800002048130020E8
:101F90006013002008B5114B93F83C201AB9BDE836
:101FA0000840FFF7E5BB93F82C2042B993F83C308A
:101FB000012B12D040F22D212720FEF743FC93F88D
:101FC0003C20022A02D040F23121F5E71B6BD3F806
:101FD000D801BDE808400CF043BC08BDF812002051
:101FE000014B1876704700BFF81200202DE9F0432E
:101FF000314D85B004460F4602A8296C2E6B16F0B1
:1020000018F814F00109BDF80C8004F0020428D07F
:10201000002385F89D3094B1FFF744FD0DF10202D5
:1020200001A9D5F8980015F0D7FE019815F0BAFE71
:10203000012238604146D5F8980015F062FEB9F1EA
:10204000000F0BD0D6E93C32013342F10002C6E961
:102050003C3296F88C30013386F88C3005B0BDE800
:10206000F08395F89D30032B20D801A252F823F07D
:1020700017200000812000009B2000009B20000012
:10208000002CEBD0FFF70EFD00224146D5F898005A
:1020900005B0BDE8F04315F034BE002CDED0D5F815
:1020A000980005B0BDE8F04315F092BE40F2A241A1
:1020B0002720FEF7C7FB00BFF81200202DE9F04FE4
:1020C0000023B74C87B080468A46276BCDE90233A0
:1020D00094F83C30022B04D040F28B512720FEF7BD
:1020E000B1FB216C04A815F0A4FFBDF8146097F8AB
:1020F0009430B8F1000F00F059819DF810909DF8D0
:1021000011B0002B3AD00BF009FDB8BB6EB197F8B7
:102110008C3003F001035B450BD1012384F835308B
:10212000FFF726FB07B0BDE8F08FA4F88C60002015
:1021300006E0A4F88C603146D4F8980015F0C1FD93
:10214000238D9DF8122043F40073C4F88800238582
:1021500097F88B3003F001039A4200F0C880256B9A
:1021600095F88A30002B3FD0022B13D102A9E06FE3
:1021700015F050FD38B940F23B41AFE7A4F88C6050
:10218000002ED4D0D7E7D5E93A32013342F100022C
:10219000C5E93A32002194F82C3085F88A103BB119
:1021A00095F8863023B1102085F88610FFF7D2FA13
:1021B00095F885309BB1002185F8851007F00AF865
:1021C000002110B940F2524188E70820FFF7C2FA17
:1021D000D5E93A32013342F10002C5E93A3295F8C5
:1021E0008B30013385F88B30238D002543F4006359
:1021F000238597F88C3003F001035B4579D00026E6
:1022000048464FF0000915F041FF97F89330B3B1FD
:1022100094F82C3097F87400B3FA83F35B0984F8D0
:102220007030D7E93A23C4E91823FFF72BFB0022CB
:1022300003465C4900920420FB220BF013FBBAF129
:10224000000F00F0DE800CF0B5FB002E40F0F180B6
:102250004FF00109238D5A0606D44020FFF782FA79
:10226000238D43F04003238585B194F82C3043B18E
:10227000B4F80720B4F805301343B7F888201343A7
:1022800004D0B4F809300133A4F80930B8F1000FD4
:1022900000F0D480B4F805300133A4F805300023F1
:1022A00084F89530404808F0B3FD029830B115F03D
:1022B00079FD216B0022027207F02AFE039B33B1E5
:1022C000216B00221A720C22039807F0EFFDB9F17E
:1022D000000F7FF425AF238D1B063FF523AF802031
:1022E000FFF740FA238D43F0800323851AE7454624
:1022F0007FE7B9F1020FD4F830B012D8B9F1000F6E
:102300001DD19BF88C3001338BF88C30002E3FF4BC
:1023100076AFDBE93C32013342F10002CBE93C32DB
:102320006DE7B9F1030FECD1238D0120216C43F44B
:1023300080538BF884002385FFF70CFAE1E7002E29
:10234000DFD0238D9BF894B043F4805323850BF0AA
:102350006DFF042894F89C3007D1BBF1000F0CBF2F
:102360001F221B22934228BF13469E420BD8D4F84B
:102370008830002B3FF443AF94F894306BB12020A9
:10238000FFF7F0F93BE794F83430012043F01003F5
:1023900084F8343013F0D2FA31E7464630E700BF14
:1023A000F812002048130020241300200BB10BF07A
:1023B000C9FB94F89530013384F89530238D43F4AC
:1023C0008063238597F87530033B012B11D80120DA
:1023D00013F0B4FA0BF02AFF011FD1F1000949EB09
:1023E00001091B2E4FF0000698BF4FF0000935463B
:1023F0000BE707F041FE81460028E8D10646054676
:1024000003E794F895100120FFF77CFA00287FF489
:102410001AAF1EB103A90120FFF7E8FD0020FFF766
:1024200057FB002E3FF416AF03A90220FFF7DEFD95
:1024300010E703A90320FFF7D9FD09E7B4F8073037
:102440000133A4F807302DE7A5180000BD200000D7
:10245000C9190000D51700000D4B0321186830B5CD
:102460000D4690F8A52090F84B400132B2FBF5F3F1
:1024700003EB4303D31ADAB244FA03F3DB0703D4C2
:10248000013911F0FF01F0D180F8A52030BD00BF67
:1024900098130020014B186815F0C9BE981300204E
:1024A00008B507F079FA014B187008BD50000020FC
:1024B000054B10B41C68827C836804F1420194F8D7
:1024C000410010BC1AF01BB9981300202DE9F0410F
:1024D000054617461E460C4619B1AB6853BB012092
:1024E0001FE0DFF86080D8F8000000F15B0390F88F
:1024F0005A2000F1780190F87E001AF000F9D8F81F
:1025000004305A79D8F80030082A04D093F84E40A5
:10251000A21A5442544193F85630012BDDD023B116
:10252000002000F00100BDE8F0810028D5D1002C8A
:10253000D3D1F5E7002FD2D1002EF1D02846FFF7F6
:10254000B7FFEEE798130020024B18686C3002F0DA
:102550005FB900BF9813002038B50F4CFFF7F4FFA8
:10256000656802F00FF963682860186820B940F2C6
:10257000EC413220FEF766F916F050F810B940F23F
:10258000EE41F6E70CF038F900200CF095F963689D
:1025900004221A7138BD00BF9813002038B5194DB8
:1025A00004466B681B79022B04D940F6FA013220ED
:1025B000FEF748F92B68027C83F8A4201A44C1680E
:1025C000996692F8242183F820214268C3F8882074
:1025D000037A022B0ED00BF017FF0CF09BF90BF0D7
:1025E000A5F809480CF0F2F808480CF0E9F808489A
:1025F0000BF076FF637C23B12B685B6E0BB101227D
:102600001A6038BD98130020C400002055555500AD
:10261000D6BE898E38B505460C4606F0D5FC420775
:1026200004D4A37803F0E003402B30D006F0CCFCB8
:10263000830704D4A37803F0E003202B27D023786A
:1026400003F03F03242B22D80BF0F6FD94F9003061
:10265000A278002B637802F01F02B4BF4FF496718A
:102660001E2143EA02234B431A1AB2F5877F0ED389
:1026700098420CD8074B294618682388A0F82131C6
:10268000A37880F82331BDE8384016F0C1BA0020A5
:1026900038BD00BF9813002008B5074B93F9002000
:1026A0007F2A04D140F292313220FEF7CBF802703B
:1026B0007F221A7008BD00BF5000002010B50478BA
:1026C0008EB004F00F0404A9224615F0E6FFFFF7D0
:1026D000E7FE042C33D11B4C059A2368107893F83D
:1026E000781088422BD1507893F87910884226D1FF
:1026F000907893F87A10884221D1D07893F87B10A3
:1027000088421CD1107993F87C10884217D15179F6
:1027100093F87D20914212D19DF8212093F87E30CC
:102720009A420CD10DF10F00FFF7B6FF9DF90F3063
:1027300004A90093237B227A606815F081FF0320AF
:102740000EB010BD981300202DE9F04387B0194C4E
:1027500006460F460DF11700FFF79EFF65682B79BF
:10276000032B20D02B79062B14BF4FF001094FF01B
:102770000309236803F142080BF058FD9DF9173057
:102780003A46CDF80C9031460293237ACDE9000306
:102790004346284602F0C2F840B1606807B0BDE881
:1027A000F04302F057B84FF00009E2E707B0BDE888
:1027B000F08300BF981300202DE9F043304D87B01F
:1027C00004460F466E68B3798BB3D5F8008098F84D
:1027D000953033B90378002B14BF0223012388F806
:1027E00095303379062BDAB225D0072A0CBF4FF08B
:1027F00002094FF001090DF11700FFF74DFF0BF033
:1028000015FD9DF91730CDF80C903A4602932146FC
:102810002B7ACDE9000308F14203304602F07EF83E
:1028200028B16378DB0609D4686802F013F8002049
:1028300007B0BDE8F0834FF00309DCE7A16902208F
:10284000FFF7E8FEB8B100222B6883F89620626992
:102850006AB15178C1F3031183F897101178527857
:1028600002F00F0241EA0222A3F89820E0E7FF22DB
:1028700083F89720DCE7686802F01CF8D7E700BF10
:102880009813002010B504468AB0FFF709FE23789C
:1028900003F00F03072B02D001200AB010BD6946D8
:1028A000204615F08DFF684616F032F89DF800308E
:1028B000002BF1D19DF80130DB07EDD50C4C0199CF
:1028C00022689DF8110002F1780392F87E2019F039
:1028D00016FF0028E0D020680121A03019F064FD27
:1028E000FF216846FFF768FF0130C0B2D5E700BF9F
:1028F000981300200D4A536810B51979022904D89D
:1029000041F2AD413220FDF79DFF1979082902D926
:1029100041F2AE41F6E71B79126903F180439268F8
:10292000033BBDE8104052F82330184798130020AD
:1029300010B5054C637A2BB10BF0ECFF0AF0F6FEF4
:102940000023637210BD00BF9813002010B5054C22
:1029500023792BB10BF0DEFF0AF0E8FE0023237190
:1029600010BD00BFE81A002010B5094CFFF7E0FFCA
:10297000012263681A7100232268A2F8213182F8CB
:102980002331FFF7E1FD2068BDE8104016F00DBBD4
:102990009813002008B5044B586801F08BFFBDE880
:1029A000084015F051BC00BF98130020062938B527
:1029B0001D469DF8104019D908291BD802B18CB1C9
:1029C00043689BB912B94378DB0615D40B4B5B689F
:1029D000186815F044FE00B134B92DB906F0BCFDFD
:1029E00000F00104204638BD0120F9E79DF81440AD
:1029F0002C43F7E70024F5E70124F3E798130020C0
:102A000038B50D1E04460CBF05200320104406F007
:102A1000B9FE094B587270B15DB9033C012C8CBFF3
:102A2000502455240AF056FE2046BDE838400BF0ED
:102A300065BF4024F6E738BD98130020F8B53D4C3B
:102A4000FFF782FD656801F09DFE636828601868E5
:102A500020B940F249413220FDF7F4FE15F0DEFDC9
:102A6000054610B940F24B41F5E7236893F8A630CC
:102A70006BB123681A6D93F8A710C3F8102193F86F
:102A800054200A4383F85420002283F8A6202068AB
:102A900090F8A430034493F82471636880F820719F
:102AA0001A7952B11B79012B07D0002116F0B0F82A
:102AB00018B9BDE8F840FFF757BF23681E4A93F8DE
:102AC000A530D05C0BF016FD236893F8A4201344C6
:102AD00093F82461022E2BD004D8012E05D040F2A9
:102AE000FA71B8E7F31E012BF9D801F045FE314623
:102AF0000BF01CFC28460BF07FFE314601200BF04A
:102B000023FD7B1E2A46384659425941FFF778FF7C
:102B1000626808210023517121722168D3801372E9
:102B2000E37281F89530A372237303231371F8BD08
:102B30000D20DCE7981300200BA20300124A10B509
:102B4000536800B931B9184601F0B4FEBDE8104031
:102B5000FFF70ABF1979082904D841F27D413220D4
:102B6000FDF770FE19790C2902D941F27E41F6E792
:102B70001B79126903F180435268093BBDE810409C
:102B800052F82330184700BF9813002010B50B4CA3
:102B90000521206816F03CF830B9606801F08AFE23
:102BA000BDE81040FFF7E0BE2368012093F8201134
:102BB0000BF0CAFE63680B221A7110BD9813002037
:102BC000054B1A6892F85420920703D05B68186886
:102BD00001F002BE586970479813002070B5304D5F
:102BE00006466B681A79032A0BD01A79042A08D092
:102BF000FFF7E6FF044640B941F2B5313220FDF758
:102C000021FE186815F00AFDF4E72B6893F854309C
:102C100013B941F2BB31F1E776B11AF012FA30B1D3
:102C20006B681A79022A0ED841F23B31E6E720465A
:102C30001AF022FA0028F3D16B681A79022A17D801
:102C400041F29B31DAE71A79082A02D941F23C3184
:102C5000D4E71B7920462A6903F180431269033BBC
:102C600052F8233098470C2812D941F2CE31C5E7EB
:102C70001A79082A02D941F29C31BFE71B792A69E7
:102C800003F180435269033B52F823309847EAE747
:102C90002B69DB68BDE8704053F82030184700BF4F
:102CA0009813002038B5FFF78BFF044620B940F297
:102CB00013513220FDF7C6FD0B4DFF202B6893F812
:102CC00020110BF033FB20460BF096FD2B6893F898
:102CD0002031033B012B94BF282000200BF0ECFD9A
:102CE0006B6807221A7138BD9813002038B5134C51
:102CF0000E20236893F820110BF018FBFFF760FFFC
:102D0000054620B94FF4A0613220FDF79BFD0BF082
:102D100073FD236893F82031033B012B94BF2820D7
:102D200000200BF0C9FD23682A46002193F82001FA
:102D3000FFF766FE636808221A7138BD98130020F9
:102D400010B5074C606801F085FDFFF7A9FB20680E
:102D50000021A03019F028FBBDE81040FFF704BEA9
:102D60009813002007292DE9F043064687B00F4647
:102D700090464568634C23D11DBB002A49D1D4E954
:102D8000001091F8543013F0030218BF012213F021
:102D90000403827103D033785A1E53425341C371E6
:102DA00091F894304BB12368D3F8900050301BF069
:102DB00082FA10B9636801221A7207B0BDE8F08385
:102DC0003DB32946707C15F070F9072F814661D11B
:102DD000637A63B158B1B8F1000F52D0656819F049
:102DE000D2FC636868715B7923720123A372636804
:102DF0005879082855D17168707C1BF099F9626880
:102E0000054671680532707C06F0ACFB63680028EB
:102E100059D0236893F8540010F003000AD093F8B7
:102E20004C303946019530466268927900924246AC
:102E3000FFF7BCFD62682368907193F8540010F0AE
:102E4000040009D093F84D30394601953046D279C7
:102E500000924246FFF7AAFD2B4B65681B68E8719C
:102E60001BB1414630469847287272686AB3717C3C
:102E7000236883F87E10116899679288A3F87C20F4
:102E800023E0236893F820110129A7D1284606F0F2
:102E90004BFC6072637A002BA9D0B9F1000FA6D069
:102EA0009CE704AA0DF10F0106F026FC20B940F6BC
:102EB000A7313220FDF7C6FC04A99DF80F001BF0D6
:102EC00037F90546A5E7D88018726268137AB3B956
:102ED000D388003B18BF0123B06800283FF46DAFD2
:102EE000072F7FF46AAF517908293FF466AF002BB2
:102EF0003FF463AF06F036FC0123E3725DE7012384
:102F0000EAE700BF98130020C00000202DE9F84F29
:102F1000DFF8C0A0914604468846DAF800201F4634
:102F20008168807C15F0C1F892F848609AF8093001
:102F3000054686F00106002B3AD092F854305B0724
:102F40001DD592F84D30D3B192F84EB0BBF1080FB9
:102F500023D0584606F0E4FA3043C6B245B39AF897
:102F60000B303BB319F019FC002304468AF80B30F0
:102F700089F8004088F800503E70BDE8F88F63681B
:102F800023B1DAF8043093F805B0DFE7DAF804305B
:102F9000186815F064FB0028F3D1CDB19AF80A1037
:102FA00031B9A06806F0C0FB04468AF8090038B9B8
:102FB0000024DDE7A168584606F02AFC0446D7E75E
:102FC00019F0E1FB0828F3D0DAF804305871CFE7A4
:102FD0002C46CDE7981300202DE9F043874D87B0AC
:102FE00004462E6896F85730002B47D06F68BB799F
:102FF00023B9FA7912B93A7A002A3FD094F80080BE
:10300000B8F1010F72D0B8F1020F00F0D380B8F11F
:10301000000F33D196F8542091072FD00BB93B7A8B
:1030200063B3637813F0100FC3F300170CBF0122D2
:1030300008229A4322D10022A3688DF814208DF82B
:103040001520002B47D00DF1160305AA0DF115012F
:103050002046FFF75BFF2B6893F841609DF8143022
:1030600083B92046FFF724FA70B92B6893F85530DE
:10307000023B012B02D89DF8153083BB032007B01B
:10308000BDE8F08346F002065FB30DF117004FF084
:103090000008FFF701FBD5E9003903F142070BF007
:1030A000C5F89DF917303246CDF80C8021460293C1
:1030B0002B7ACDE900033B46484601F02FFC00285F
:1030C000DCD0A1690120FFF7A5FA0028D6D02B6833
:1030D00083F896803BE0FF268DF81630D4E7FE2675
:1030E000D2E731462046FFF72FFBC7E796F82021AD
:1030F0006378022A3DD103F01903192BBED196F84B
:1031000054305A0739D40DF11700FFF7C5FAD5E945
:10311000003703F142060BF089F80023FF22214615
:1031200003939DF9173002932B7ACDE900033346C0
:10313000384601F0F3FB0028A0D0A1690120FFF779
:1031400069FA00289AD02B68012283F896206269D8
:10315000002A4ED05178C1F3031183F897101178EB
:10316000527802F00F0241EA0222A3F898200220CE
:1031700085E703F01803182BC0E761680023204699
:10318000B1FA81F11A464909FFF7A0F900283FF486
:1031900075AFA3692A689B781F2B04D892F8493031
:1031A000002BB0D16AE703F0E003402BABD192F8DB
:1031B0004A30F5E796F854309B073FF45FAF6378E9
:1031C00003F01803182B7FF459AF0DF11700FFF728
:1031D00063FA0BF02BF80023FF22214603939DF99D
:1031E000173002932B7ACDE9000306F142033846EB
:1031F00063E7FF2283F89720B9E700BF9813002008
:10320000014B586801F056BB981300202DE9F04F90
:10321000044689B0062900F2C580DFE811F060009D
:10322000E7000700C300C300C30026006E4D0BF08B
:1032300001FA2F6897F85430980714D06E68B37964
:103240008BB10DF11F00FFF727FA9DF91F30022205
:103250002146029330462B7A0193FF23009307F116
:10326000420315F0DDF903201FE05F4D6E68B3796E
:10327000002B00F097802F6897F85420910717D5FE
:103280000DF11F00FFF708FA9DF91F3030460622A6
:10329000029321462B7A0193FF23009307F1420307
:1032A00015F0BEF9002309202B7309B0BDE8F08F9B
:1032B000D30777D5570701D50BF0BCF90DF11F00E7
:1032C000FFF7EAF99DF91F202B6802922A7A423310
:1032D0000192FF220092062221466868C1E7424D12
:1032E0002B6893F85420560737D56968CA79002AA5
:1032F00033D0426893F85B001678864255D15678F1
:1033000093F85C00864250D1967893F85D0086422F
:103310004BD1D67893F85E00864246D1167993F861
:103320005F00864241D1507993F8602090423CD1B1
:10333000627C93F85A00101A4242424193F85600B8
:1033400001284ED0002A4CD193F84E30082B02D0E1
:103350004A799A4245D00BF06DF96E68B379002B2B
:103360003DD02F6897F85420930720D50DF11F000A
:10337000FFF792F99DF91F30304600220293214653
:103380002B7A0193FF23009307F1420315F048F9CC
:10339000012309202B736B68DA79002A85D19B7988
:1033A000002B82D10BF046F95DE70022C6E7D60775
:1033B00015D5500701D50BF03DF90DF11F00FFF7B2
:1033C0006BF99DF91F202B68214602922A7A42331D
:1033D0000192FF2200920022686815F021F9032073
:1033E000D9E70A20D7E700BF98130020644D816811
:1033F0002A68807C14F059FE92F854306E680746B3
:1034000092F84890590796F806A096F807B089F008
:10341000010940F18E8092F84D30002B00F0898038
:1034200092F84E60082E00F08680304606F078F85C
:1034300049EA00005FFA80F9002F7ED03046A1688B
:1034400006F0E6F906462B6893F8542093F841807D
:10345000520749D5626893F85B10107888426ED1A4
:10346000507893F85C10884269D1907893F85D1099
:10347000884264D1D07893F85E1088425FD1107989
:1034800093F85F1088425AD1517993F860209142A5
:1034900055D1627C93F85A10501A424242416968F1
:1034A000497908294DD093F84E30591A4B424B4177
:1034B000002E48D1B9F1000F47D02046CDE90423B2
:1034C000FEF7F6FFDDE90423BBF1000F0AD02968FF
:1034D00091F8561001294ED021B9002A4BD108B1DC
:1034E000002B4AD10BF0A6F82B6893F854309B07B9
:1034F0003FF4B9AE0BF09EF8BAF1000F3FF4B3AE53
:103500002046FEF7D5FFD5F8009000B9FEB10DF1C9
:103510001F0048EA4608FFF7BFF89DF91F300293E5
:103520002B7A01935FFA88F30093012209F1420399
:10353000D2E6767976E7002685E73E4683E70022E5
:10354000ADE70023B4E70120BEE73046BCE799F8B9
:103550005530023B012B3FF686AE002F3FF483AE81
:103560000DF11F00FFF798F89DF91F3002932B7A99
:103570000193FE23D8E70028B4D00A2095E600BFC7
:103580009813002030B58BB00546FEF789FF114B2C
:103590001B6893F8543013F0060F04D001229621D3
:1035A00000201BF025FA2C786946284604F00F0409
:1035B000224615F072F8002221466846FFF7D2FB3A
:1035C00021466846FFF722FE0446FFF7B1F9204680
:1035D0000BB030BD9813002030B505468BB0FEF718
:1035E0005FFF2C7828466946294D04F00F0415F03A
:1035F000E7F82B68072C16D193F82011684615F0D0
:10360000E8F8002221466846FFF7ACFB2B6893F8E8
:103610002031022B32D017D8012B1AD041F236219B
:103620003220FDF70FF993F8542012F0060FE8D07E
:1036300093F8A420134493F82421012AE1D1962180
:1036400000201BF0D5F9DCE7033B012BE6D8072C63
:1036500019E0062C02D00BD8022C0BD82146684664
:10366000FFF7D4FD0446FFF763F920460BB030BDE9
:10367000072C09D00AF0DEFF0324F4E7072CFBD166
:103680009DF80030012BF7D16846FFF7A5FCE9E76C
:103690009813002038B5154D2C6894F84830F3B1D4
:1036A0006FF00043D4E920129A4208BFB1F1FF3F06
:1036B00015D011F03DFFD4E92023904299410ED35B
:1036C0002B6893F848305BB92D6806F00FF8044674
:1036D00011F02EFF064BE4FB0301C5E9200138BDC4
:1036E000012006F061F80028F9D0EDE798130020DA
:1036F00040420F0010B50446FEF750FF237A032B1B
:1037000004D140F629113220FDF79CF80BB9FEF7E1
:10371000A3FE064B1B6893F958000AF0DBFEFFF787
:103720008DF9BDE81040FFF7B5BF00BF981300202A
:1037300070B51E4D06462A6892F8233192F8210191
:103740005F2B4FEA531100F03F0097BF184B002446
:103750005B18DC780AF0CEFE2B6893F958000AF06B
:10376000B9FEFEB12B682246996E01200AF04EFF89
:103770002B68214693F89630022B14BFFF2040207F
:103780000AF0D4FDFFF71CFA2B68064693F8951053
:1037900019B902462046FFF733F93046BDE87040BC
:1037A0000BF02AB82246AA21DFE700BF98130020B9
:1037B0000BA20300F7B52C4C0746226892F8233180
:1037C0005F2B4FEA531197BF284B00255B18DD781C
:1037D000936E13B10120FFF7ABFF2368D3F8880085
:1037E0000BF03EF8236893F85420910703D593F823
:1037F0009610022905D052070ED593F89620012A7B
:103800000AD1042D26D193F85930012B0CBF032186
:10381000042100200BF098F8D4E9006318689A3668
:10382000D7B914F01CFF63680746186814F01DFF31
:1038300021680246304691F8963091F820110091A7
:10384000394615F019F8236883F820510023A37234
:1038500003B0F0BD2946DCE714F013FF0146304603
:1038600014F0FFFFEFE700BF981300200BA2030046
:1038700008B50120FFF79EFF024B06225B681A7114
:1038800008BD00BF9813002008B50020FFF792FF85
:10389000024B05225B681A7108BD00BF9813002017
:1038A00010B50446FEF77AFE237A032B0AD1194B92
:1038B0001B68986E20B140F63F113220FCF7C2FF22
:1038C000FFF736FF237A012B06D003D9023B012BE9
:1038D00012D910BDFEF7C0FD0E4C236893F95800B5
:1038E0000AF0F8FD2368002283F89520FFF7A6F878
:1038F000BDE81040FFF7CEBE064B1B6893F895302D
:103900001BB9BDE81040FFF7BFBFBDE81040FFF78F
:10391000AFBF00BF9813002008B5044B586800F0F3
:1039200099FFFEF7BDFD012008BD00BF98130020E0
:1039300008B5FEF7B5FD054B00211868A03018F05A
:1039400033FDBDE80840FFF70FB800BF9813002013
:103950002DE9F3414C4D00230E4607462A6841F2FB
:103960007070116D53720B885381CB69A3F57A7413
:10397000844295BF4FF47A7040F2E240B3FBF0F31B
:10398000B3FBF0F398BF03F550639BB213848B8CA9
:103990005384CB8C93844FF47F43D3844FF6FF73CF
:1039A000138517B30121304619F0C0FA014630786B
:1039B000C0092C6894F8483004F11402FBB114F0EB
:1039C00074FBE0B10B6863618B88287A938004F103
:1039D0000E0208284AD004F10D0105F08DFE88B9C9
:1039E00041F204413220FCF72DFF6946686919F065
:1039F000EFF96B6969461878C0F38010D9E70023A6
:103A00006361E2E72C68637B04F11A0843F0020368
:103A1000637347B30021304619F088FA0368C4F88D
:103A20001A308388A8F804302B6893F95810186D61
:103A300005F088FF2868154919F01EFE286814490A
:103A4000036D2A301A88A0F8092093F89630C372C3
:103A500019F01BFE0221286801F030FAFEF774FD10
:103A600002B0BDE8F08104F17800D7E794F87E3029
:103A70006373A36FC4F80E30B4F87C3093800023D6
:103A8000C4F81A30E383CFE79813002007810100C0
:103A9000C380010008B5FEF74BFF044B00205969B5
:103AA000FFF756FFBDE80840FEF7F4BC981300206E
:103AB0002DE9F04705468AB0FEF7F2FC2B7803F0BB
:103AC0000F03082B05D04FF0010840460AB0BDE8AF
:103AD000F0876946284614F011FE9DF80080B8F181
:103AE000000FF0D19DF8013003F00303032BEAD15E
:103AF0002D4C266896F84D30002B3BD096F84E7032
:103B0000637A002B39D14FF0000906F1780396F85B
:103B10007E2001999DF8110018F0F1FDB9F1000F18
:103B200001D10028CFD0236893F8419003F1420AD5
:103B300096F8483023B1384605F0A4FE024638BB5B
:103B400052469DF812A00299504614F0AEFA134660
:103B500006464A46504618F0D2FDE0B120680121E1
:103B6000A03018F021FCFEF7E3FE29460120FFF704
:103B7000EFFEAAE763685F79C2E718F004FE082841
:103B8000C1D0C31B2072D3F1000949EB0309BCE784
:103B90004FF00109D5E7002E95D00299384605F07F
:103BA00037FE0028DAD18EE7981300202DE9F8437C
:103BB0006D4F0023064689467869D7F80080037068
:103BC00043700AF035FE054630B90025032006F0A3
:103BD0008DF92846BDE8F8837C69032E237834D11B
:103BE00023F00F0343F0030323700C236370D8F812
:103BF00078307869C0F80930B8F87C30A0F80D301A
:103C000098F87E1019F0F8F8002178691AF0FCFE97
:103C10003B6893F8482003F1420993F84180002A59
:103C20007FD14C46236841467869C0F80330A388A9
:103C3000A0F8073019F0D3F84C4BD3F80C32002B16
:103C400000F084800AF0F6FCBFE723F02F03222265
:103C5000396843EA4913627043F0050323700B6D22
:103C60001B6AC4F80F300A6D936A180AE3741B0CC0
:103C70002075637592F87E00138E00284BD04FF0AC
:103C8000640CB3FBFCF3A375D36A002846D0642010
:103C9000B3FBF0F3E375C3F3072341F270702376AF
:103CA000D369A3F57A7C844595BF4FF47A7040F2CE
:103CB000E240B3FBF0F3B3FBF0F398BF03F55063BE
:103CC0009BB263761B0AA376938CE3761B0A237759
:103CD000D38C63771B0AA377D2F89730C4F81F30D0
:103CE00092F89B3094F8242084F823300B6D22F056
:103CF0001F0293F8A23003F01F03134384F824300B
:103D000005F088F994F8243003F01F0343EA4013C8
:103D100084F824306BE740F2E24CB2E740F2E24034
:103D2000B6E793F8542052070DD593F84D2052B1C1
:103D300093F84E0005F0A6FD044600283FF471AF4D
:103D40004FF001086EE77B685879F3E7052E7FF4A2
:103D500040AF3B6821681A6DC2F80A10A188D18172
:103D60001B6D83F8098034E79813002000A00850E9
:103D700010B500210320FFF719FF18B9BDE8104066
:103D8000FEF7F2BD074C0321206814F041FF002824
:103D9000F4D0012108460AF0D7FD636809221A71A0
:103DA00010BD00BF9813002038B5184D6B68186817
:103DB00014F034FC044620B94FF4AB613220FCF718
:103DC00041FD6B680A22002128681A7101F076F81B
:103DD0002B6805201A6D237892F8964004EA531454
:103DE00004F001042146FFF7E1FE18B9BDE83840B0
:103DF000FEF7BABD0421286814F00AFF0028F5D0A8
:103E00002B681B6D83F8964038BD00BF98130020C7
:103E100010B5114C0C220121636820681A7101F061
:103E20004DF800210520FFF7C1FE18B9BDE810408C
:103E3000FEF79ABD0621206814F0EAFE0028F5D0AE
:103E40002368012093F820110AF07EFD23680122E7
:103E50001B6D83F8962010BD981300202DE9F041CA
:103E6000044690B00D46FEF71BFB237803F00F03CA
:103E7000072B06D00124FFF7C3F9204610B0BDE898
:103E8000F0812046A14C06A914F09AFC206806A9EE
:103E90009A3014F00FFD23689DF8181093F89620BF
:103EA000914248D1032D03D193F89720FF2A13D0D4
:103EB0009DF8192012073ED50B9993F897004A7880
:103EC000B0EB121F37D1097802F00F02B3F8983027
:103ED00041EA02229A422ED12A46072106A8FEF77D
:103EE00041FF6368DA880AB91B7A23B30023089E6E
:103EF0008DF814308DF815308DF81630F6B10DF1BF
:103F0000160305AA0DF1150106A8FEF7FFFF2368A9
:103F10009DF8146093F8415045EA4605EDB29DF8CE
:103F200018209DF81580012A9DF8163008D0022A25
:103F30007AD0002A4BD0FFF763F914E0FF25EEE7B3
:103F40009DF81900226800F0090792F89A10092FCD
:103F500002D041B1070706D592F85420500704D487
:103F600063689B799BB9012459E06268D279002A81
:103F7000F6D0324606A8FEF7A9FA0028F0D020684D
:103F8000A03018F033FA0028EAD00C2447E0236868
:103F900093F854309A07E6D09DF819309B0700F14A
:103FA000BC80FF2106A8FEF7CFFBDCE706A8FEF7E2
:103FB0007FFA002840F0B480236893F85530023B24
:103FC000012BD0D8B8F1000FCDD0FE21EAE723684D
:103FD00093F854309F07C6D09DF81930980721D523
:103FE0006EB906A8FEF764FA48B9236893F855300D
:103FF000023B012BB7D8B8F1000FB4D0FE2563689F
:104000001B7A33B1424B1B681BB10D9808B10F9955
:104010009847294606A8FEF7CFFB441CE4B2FEF7FA
:1040200087FC2AE7FF25EAE7226892F854209107E7
:1040300099D061688979002995D09DF8197007F0A9
:10404000090109298FD1920707F0020762D5002FD5
:1040500038D026B30DF11700FEF71EFB0021032018
:10406000FFF7A4FD0646D4E9003803F142070AF041
:10407000DDF801232A4606A903939DF91730029320
:10408000237ACDE900033B46404600F047FC76B971
:1040900000283FF468AF606800F0DCFB63E7002BAA
:1040A0008AD006A8FEF704FA0028D3D184E70028B6
:1040B0003FF459AF2068A03018F098F90028EAD0F2
:1040C0000B24ACE70DF11700FEF7E6FA39460320A2
:1040D000FFF76CFD0646D4E9003803F142070AF009
:1040E000A5F801232A4606A903939DF917300293E8
:1040F000237ACDE900033B46404600F00FFC0EB1A9
:104100000028D7D1606800F0D5FB2CE79813002079
:10411000BC000020002F3FF444AF002E3FF446AF18
:1041200029463FE7036D10B5044623B94FF4567195
:104130003220FCF787FB0222074942721B88438129
:10414000FF2380F827304FF6FF73038519F094FAA8
:104150000023236510BD00BF07810100F8B5184F8B
:104160000E46012178610020FDF71EF8054620B9B2
:1041700040F683013220FCF765FB4FF49472002176
:104180001AF0C5FF01210846FDF70EF8044620B1DC
:104190004FF4947200211AF0BAFF3B6913B940F64C
:1041A0008D01E7E7304614F092F8284614F09EFDA2
:1041B00024B12046BDE8F84014F098BDF8BD00BF1A
:1041C00098130020014B024A1A617047981300208F
:1041D000B4010020014B024A1A6170479813002075
:1041E000CC010020036810B523B940F66E113220CF
:1041F000FCF728FB044A13606C3353601369BDE875
:1042000010401B68184700BF9813002008B5044BE6
:10421000586800F04FFBBDE80840FEF7A5BB00BFA3
:104220009813002038B5044690F8400000F0FD00D7
:1042300004F14201003818BF012084F8410005F064
:1042400009F894F84030023BDBB2012B94BF012304
:10425000002384F8483015D805F048FA054611F0D7
:1042600067F9094BE5FB030194F84830C4E92001E4
:1042700043B1002005F098FA20B940F6162132200B
:10428000FCF7E0FA38BD00BF40420F00014936306C
:1042900019F0F5B9E580010010B5084C02226368F9
:1042A00020681A7100F0D8FC38B9206814F06FF952
:1042B0002068BDE8104014F078BE10BD98130020AF
:1042C000013808B5C0B20A4B41B1032801D8185CC7
:1042D00008BD4FF4E8713320FCF7B4FA032802D884
:1042E00003441879F4E74FF461710620F4E700BF46
:1042F00011A2030008B513F04DFE054AD2E84F3F66
:104300000133DBB2C2E8413F0029F7D108BD00BF4D
:10431000B0130020024BA0F108015868FFF7EABF74
:10432000B01300202DE9F84F1E463C4B0D46934636
:1043300000211A7804689DF828709DF82C809DF95A
:1043400030909DF834A0016032B9A4F1080158689A
:10435000BDE8F84FFFF7CEBF1A2204F109001AF0AA
:10436000D6FE0123A372BBF1060F4FD8DFE80BF096
:104370000433394E434E3D00E37A23F0130343F0F8
:104380001303E372012304F10E024146284623750C
:1043900047F6FF7384F81890E38204F10D0314F0DC
:1043A00011F9E37A5B0736D5BA1E04F11C03012A22
:1043B0008BBFAA6832681168E2618ABFE161B28886
:1043C00092889A80E7760023237215492046BDE83B
:1043D000F84F19F054B9E37A23F0150343F01503AD
:1043E000CFE7E37A43F01003CBE7E37A23F012033D
:1043F00043F01203C5E7E27A4AF01A0A22F01B02E0
:104400000AF01B0A42EA0A02E272BBE740F24241AA
:104410003320FCF717FAFF23E376D4E7B01300202C
:10442000254400002DE9F04F05468DB00C460020D4
:104430000121FCF7F5FE064620B94FF4EF71332059
:10444000FCF700FAA83014F0D6FB18B196F85430F7
:10445000042B2ED1304613F02FFF50BBB64C04F185
:10446000080604F10C07AB6A93B92846FFF752FF20
:104470004FF40073ADF804309DF80430002063F36E
:1044800007009DF8053063F30F200DB0BDE8F08FF5
:10449000A96A0B68B142AB624FF000030B704B701E
:1044A0008B70CB70DFD0B942DDD06068FFF722FFA0
:1044B000D9E7AF6A37B3A14B9F4226D0043B9F4256
:1044C00023D007F13B0A4FF0000804F035FD814688
:1044D000B8F1000F40F0008102A9504614F070F9C5
:1044E000B9F1000F16D004F10D00EE7A16F01006A7
:1044F00013D09DF818600599324612F055FD4FF023
:10450000010828E005F1330ADDE74FF001084FF01C
:10451000000ADAE704F11C00E7E7002FEFD09DF86E
:104520000830022BEBD0014695F83230E522504698
:1045300018F00BFD95F8323006460344504685F8D6
:10454000323018F0FAFC95F83280A8EB0000D0F178
:10455000000848EB0008B9F1000F00F0C180EB7AC9
:10456000D90604D45B216AE7C8460026F7E713F0B2
:10457000040FAA7A95F80DE004F1060005F10E0C7F
:1045800030D0E97EFE292DD11123E27084F805E0B8
:10459000237013010233637001232371D5F80E30A9
:1045A000C4F80630BCF8043083802173EB69C4F88A
:1045B0000D302B8CA4F811302B7EE3745E4E06F187
:1045C000080A57453BD12379022205F1280062F3FE
:1045D0004613237114F012F802272846FFF79AFEBB
:1045E00004263FE006F10A030321E27053432170E1
:1045F000023384F805E06370D5F80E30C4F8063055
:10460000BCF804308380267326442B7E7373EA7AC9
:1046100012F0080002D004232371CFE702F0030355
:10462000032B01D12071C9E7520701D50123F3E71C
:10463000022BF1D00BB92171C0E7A221FFE606F1F0
:104640000C094F4515D105F1280013F0D7FF6A7DFD
:104650006AB92379042662F3461323710227284698
:10466000FFF758FE8DF804608DF8057004E700260A
:10467000F4E747B3B8F1000F20D005F12808404611
:1046800013F0BCFF39467068FFF734FEAB6A0022B6
:10469000534585F8322096D04B4505D123794046C5
:1046A00062F34613237195E79DF80830022B05D17C
:1046B000237923F068030127237191E723790122ED
:1046C00062F34613F7E7EE7A16F01006CAD02379A4
:1046D00067F3461323717FE700287FF445AF064652
:1046E000042305F12301237006F11803AA7A53432A
:1046F000E270221D0233637005F10B0353F8040BC3
:104700008B4242F8040BF9D195F814A095F815B036
:1047100004F050FCC1F3402950464946FFF7D0FD54
:104720006073BBF1000F04D049465846FFF7C8FD3F
:10473000A073E67642E700BFB0130020BC13002050
:10474000343270B5054692B20C461E4613F0EAFBB1
:1047500025B1034A556014745674147070BD00BFBF
:10476000B013002010B5034C606813F0FDFB237CF0
:10477000237010BDB0130020014B587C704700BF60
:10478000B013002038B5134D686813F0F3FB0446EE
:1047900020B940F255113320FCF754F8D5E84F3FCB
:1047A000013BDBB2C5E8413F0029F7D104F1080322
:1047B000342218461AF0ABFC47F6FF720121E4627E
:1047C000E283FF22627584F82320E27C61F34612C3
:1047D000E27438BDB013002038B5436A044693B97B
:1047E0000A4D686813F0C6FB606220B94FF4B771D8
:1047F0003320FCF727F8D5E84F3F013BDBB2C5E893
:10480000423F002AF7D1606A3B3038BDB013002028
:10481000036810B504468BB19A6A22B140F28B113D
:104820003320FCF70FF8596A41B101F108008342C7
:10483000074B08BF22605868FFF75CFD216831B163
:10484000034B08395868FFF755FD0023236010BD5E
:10485000B013002038B5046805469CB113492046C2
:1048600018F016FF124B00221A735A739A73DA73F8
:10487000EFF3108272B6A16A0C3399B9A362E362B6
:1048800002B962B62C68616A49B101F108039C4221
:1048900003D0074B5868FFF72DFD00236362002308
:1048A0002B6038BDE16A0B60E9E700BF25440000DA
:1048B000B013002070B50668044656B3716A154DF2
:1048C00041B101F108039E4202D06868FFF712FD72
:1048D0000023736221684E7DB6B100232B726B7288
:1048E000AB72EB72EFF3108272B6886A0A4B40B972
:1048F0008B62CB6202B962B62046BDE87040FFF71A
:10490000A9BFC86A0360F4E708396868FFF7F2FCDA
:10491000266070BDB0130020B81300202DE9F047C9
:104920000468914606460D469A469DF820209DF85B
:104930002C8024B940F237313320FBF783FF664FD8
:104940003B78B3B9B8F1020F0DD009D9B8F1030F14
:104950000CD03368002B00F08A804FF45571EBE7E0
:10496000FFF756FFF5E7FFF775FFF2E7FFF7A2FF46
:10497000EFE7636A0BB94021DEE783F81180CB686B
:104980007BB1097C238E0B4440F272618B4207DDC0
:10499000FFF790FF3368002B69D040F27131CBE70D
:1049A00023860123A3729DF928302376B8F1000FE6
:1049B00060D122756B691BB15B78C3F30313A375D8
:1049C000EB6913B15B88A4F819302A78511E4B4269
:1049D0004B41E17A63F30001C1F34003022A08BFAF
:1049E00043F0010363F34101C1F34003002A14BF04
:1049F000002303F0010363F3C301AB68E1721BB151
:104A0000CBB243F00403E3722B6A13B193F9003085
:104A1000E3756B6843B104F10D0304F10E029DF8D8
:104A20002410284613F0CEFDAB688BB1A9F102012A
:104A300004F11C02012995BFDAF800301968E3611E
:104A4000E16194BFBAF804309B88938084F81B908E
:104A5000A969B8F1000F0FD179B38B784A7803F0C8
:104A60001F0352EA032228D13046FFF7D1FE00206F
:104A7000BDE8F08762759DE70022636A1A705A707C
:104A80009A70DA70A26AEAB9A362E36289B14A78DD
:104A9000897801F01F0152EA01220AD1A16A3A7213
:104AA0007A72BA72FA720D4A79B9A2620023E2628E
:104AB00033600B49204618F0EBFD636A3BB94FF4B5
:104AC000D77139E7E26A1360DFE71A60EEE7002387
:104AD00001206362CCE700BFB0130020B8130020B0
:104AE0002544000010B590F854308A1E012BD2B234
:104AF00005D1022A2CD8184B33F8120010BD032917
:104B00001DD002291FD14FF4E1700024124B03EB9A
:104B10004403DB8803390344012903F196038CBF66
:104B200000202820022A4FEA400094BF0B4940F69B
:104B30004802184498BF31F812201044DEE740F2D2
:104B400064600124E2E740F2E6204FF4B073E1E74D
:104B500040F64800D2E700BF1AA203001AA20300E1
:104B6000014610B504460E4810F00AFD202884F8CE
:104B7000170111D021460A4810F002FD202884F8C0
:104B80001E010BD194F8170110F0EAFC20B940F295
:104B90008F212120FBF756FE002010BD0120FCE7ED
:104BA000198D0100014B1870704700BF51000020A3
:104BB0007FB590F8143103F0FF0223B140F2B72122
:104BC0002120FBF73FFE0C78039214F0010318BF7D
:104BD0008D68CDE9012218BF0195A60707D504AD60
:104BE000CE6805EB83050133DBB245F80C6C650735
:104BF0002BD504AD0E6905EB83050133DBB245F817
:104C00000C6C013B134D80F81D314B68C0F8C83067
:104C1000C0F8F83040F27123A0F8FC30002315F8FA
:104C2000011B0C420BD004A900EB820601EB8201B0
:104C3000013251F80C1CD2B22B39C6F8CC1001331A
:104C4000DBB2032BEBD104B070BD002BD9D14FF4F4
:104C50003471B5E726A2030090F823315F2B4FEAA9
:104C600053112DE9F04F044689B000F2A5808F4A18
:104C70000A4492F80F90B9F1040F04D100224FF0CA
:104C8000030980F81F2194F9212103F01F0394F8F0
:104C90002271002A47EA032794F82131B4BF4FF468
:104CA00096721E22DB0902FB07F70CBF4FF01E0BAA
:104CB0004FF4967B09F0C0FA3D1A09F0FFFA94F818
:104CC0002131804605EB0B0A13F0400FB8440CBFAE
:104CD0004FF4FA76322617F098FB754B0644B5F57B
:104CE000977F0AFB06F606F5742606F23F26B6FB0A
:104CF000F3F66AD394F8153103F0FF0A002B5ED166
:104D0000484609F0A9FF6B4B4FF47A7253F82970AB
:104D100007F52243B133B3FBF2F5E2355D4405EB11
:104D200046050544484609F097FF0190484609F0BA
:104D30009BFF494683462046FFF7D4FE00F18C03D3
:104D4000019AA7EB0B072B448DF808A08DF811A052
:104D50009B1A4FF47A72B7FBF2F7DF1BD4E92C32BF
:104D60000397BB3B42F1FF3213EB080342F1000211
:104D70009B1B62F10002CDE906324F4B1878FE28EA
:104D800003D094F854305A0701D410F03FFD8DF849
:104D9000100002A994F81701C4F8D870C4F818518B
:104DA000DDE90623C4E92E2310F068FC38B940F28F
:104DB00004712120FBF746FD4FF0000963E709F07D
:104DC00095FC10F0B8FB01205EE048464FF47A7A7B
:104DD00009F042FF374B53F8295005F2E737B7FB8C
:104DE000FAF720375F44474437440744484609F000
:104DF00033FF0190484609F037FF83464946204675
:104E0000FFF770FEA5EB0B0500F18C03019AD4F8B7
:104E1000D8903B44B5FBFAF59B1A5D1BA94514D30A
:104E200094F81C31A8F1100802A802948DF81830EB
:104E30000223A8EB060603978DF810300023059691
:104E40008DF81930FFF7CEF9BDE71B4B93F800A0A2
:104E5000BAF1FE0F03D094F854305B0702D410F07F
:104E6000D5FC8246504610F0DBFCA5EB0903514609
:104E7000192B38BF1923834228BF034618461D4605
:104E800010F063FC18B1002009B0BDE8F08FD4F831
:104E9000D8302B44A3F18200C4F8D830C4F8E00025
:104EA00010F038FD0028BBD1EDE700BF1AA20300C7
:104EB00040420F0030A503005100002001292DE9D8
:104EC000F347064605D9022900F0A08040F65201BA
:104ED00050E001F00104D0E92CA709F0CBF996F8D5
:104EE000208181462046414617F08AFD054640460E
:104EF00009F0BAFE0246002C3FD0A8F10203DBB253
:104F0000022B3AD8574901EB43035B8A15EB09059D
:104F10002CBF0121002115EB0A0547EB010752497F
:104F200051F8280000F2E73010444FF47A72B0FBD9
:104F3000F2F02D1A67F10007ED1847F1000719F09C
:104F400032FA5430D6F810812C1AD8F81C9067F138
:104F5000000506F089F906F1E803834210D04A46BD
:104F6000CDE90045D8E9720119F02BFA81451DD22F
:104F700040F27B312120FBF765FC4FF4FC73C5E761
:104F800098F87D0090B1D6E93A7A06F0C5F930B9C3
:104F9000B8F9EC31A8F8EC01DF194AEBE37A4A469C
:104FA00038465146CDE9004519F00BFA2F4B1A68E7
:104FB000D6F81031824293F87E100BD9DE69321890
:104FC000DE6279B941F66A018842198616D340F249
:104FD000E471CFE749B16422B0FBF2F151430246DC
:104FE000401AD9624FF4FA71EEE740F2E242B0FBA8
:104FF000F2F151430246D962401AE3E7121945F132
:105000000005C3E9722502B0BDE8F087D0F8103181
:1050100013B940F2EF71ADE7002583F8F05190F835
:10502000201183F8741083F87510FF2483F87640FC
:105030000339D0F81001012900F13C008CBF002198
:10504000012118F00CFCD6F8100119F0FBFAC6F893
:10505000105186F8164109F049FB02B0BDE8F0474F
:1050600010F069BA1AA2030044A50300C41300207B
:1050700008B50B4B30B101280DD040F66501212059
:10508000FBF7E0FB18601A6841F669039A4206D9FB
:1050900040F66E01F3E740F6C4121A60F3E708BD6C
:1050A000C41300202DE9F04F04468FB01E468B46F6
:1050B0000392BDF8608010F03BFA814620460491CF
:1050C00013F093FCD4F8CCA00546002E00F0248207
:1050D000002800F04282204613F012FE039B80F06D
:1050E0000106F6B2002B00F0188119F5FA6305935A
:1050F000049B43F10003069306F002F906F0BAF8A8
:10510000074604F1E8003946079006F085F8D4F820
:10511000101111B1079813F0C2FD1FB1B7F9242087
:10512000A4F80C21B5B1D4F8F050B7B1B868059B1C
:10513000D7E9002100938018069B2A4641F100011F
:10514000019319F03EF9854208D240F267312120DF
:10515000FBF778FBD4F8C850E7E73846079006F02D
:10516000D5F8059B0798D4F8C8C0C518069B43F12D
:105170000007B8F1000F00F0CB801FFA88F842F268
:10518000107329463A46E8FB03120CF2CF7303442E
:10519000B3FBFCF30CFB03F3EB1A67F10000C4E96B
:1051A0003A300123C4E92A124FF0000804EB080248
:1051B0002046069392F8241113F0DAFB0590069B23
:1051C000D4E92A21521B61EB0701012A71F1000089
:1051D0004FF00000C0F290819245884100DB92467A
:1051E00004EB8808D8F8CC20524594BFC4F8DC20E2
:1051F000C4F8DCA026BB1BB35900B4F90C0189B27A
:1052000018F0C4FBB4F80C21D4F810314FEAE07C5C
:10521000121A12B2A4F80C2143B1A3F8EC21D3E97D
:10522000722112184CEB0101C3E97221D4E93A3220
:105230002D184CEB07071B184CEB0202C4E93A325D
:10524000039B2BB1D4E93A23C4E92C57C4E930239A
:10525000059B4FF000082A462046C4F8D8303B464C
:10526000C4E92E578BF8098013F0D5FB059B8BF80A
:105270000800CBF80430002E00F049810123049986
:105280008BF80030D4E92A32B3EB090362EB010258
:10529000012B72F10001C0F23181B34F9F4278EBD4
:1052A000020200DB1F46D4F81031D4F8C880002B6E
:1052B00040F0298107262046A8FB065613F095FBEF
:1052C000002800F01D81D4E92C32ED1846EB0206CF
:1052D000A945049BB3410FD2B5EB0905049B66EBCE
:1052E00003066FF00103AB424FF00003B34102D35A
:1052F000AF4228BF2F46B846CBF81080D4F8DC0068
:10530000059B984234BF002001200FB0BDE8F08F0C
:105310004FF0FF316FF0004237E7002E38D06FF0CA
:105320000043D4E92A129A4208BFB1F1FF3F2AD0C4
:1053300094F81C312046234493F8241113F018FBF1
:10534000039B19F1AB0205468DF82030049B0990B0
:1053500008A843F10003CDE90C230223ADF828305F
:1053600010F0C6F910B94FF49661F0E6D4E92A328C
:105370000C995B1A0D9962EB01025B1B62F1000351
:10538000002BC0F2B2804D46049F012600230BE79C
:10539000D4E93A37D4F8C8500026A9EB03025919CA
:1053A000B2FBF5F205FB02F247F100075218A2EB3F
:1053B000090147F10007AA290DD8D4F8B810C91A75
:1053C000B1FBF5F105FB0133D31AB3FBF5F3AD18CF
:1053D00047F10007E8E694F82411204613F0C8FAD4
:1053E000D4F8B820D4F8C850099020468DF8206031
:1053F0008DF82960D4E93A13521AB2FBF5F26A43E8
:10540000521843F10003CDE90C2313F004FB2946A5
:105410008DF8280008A817F08DFA0346DDE90C572F
:10542000C2E651F8042F013302F12B0CBC459FBF9B
:10543000821A08F10108BF185FFA88F8DAB29645B7
:10544000EFD804EB0803204693F8241113F090FAE8
:10545000384404EB8803D3F8CC30834209D3A3EB60
:10546000070ABAF1000F24DA4FF48D616FE62F4678
:105470006AE094F81D11D4F8C820414511D908F10B
:10548000010895425FFA88F808D204EB8803D3F844
:10549000CC3003F12B029A461546E2E740F2424136
:1054A00055E69542F7D352009542F4D340F25F415E
:1054B0004DE6AD19059B20464FF0000643F100076D
:1054C000D4E92C2313F02CFAD4F8C8305843D4E98B
:1054D0003A321B18204642F10002C4E93A323B46F8
:1054E0002A4613F01DFA034660E6039B4D46049FCF
:1054F00001269A46984659E6824671E64746D2E624
:10550000D4E93032E1E64FF0FF352E46E0E68BF885
:105510000060CBE90457F1E6039B002B7FF4E5AD77
:10552000D4F8C87009F1AB05D4E93A23A9EB020617
:10553000B6FBF7F67E43B618A5EB060543F100036C
:10554000AF42059393D8EF1B002394F81DE104F1BB
:10555000C8016FF02A00984670E7039B002B3FF4C8
:1055600017AF2E46C1E500BF0040420F0138C0B260
:10557000032808B504D94FF461710620FBF762F9DE
:10558000014B185C08BD00BF36A203000138C0B251
:10559000032808B504D94FF461710620FBF752F9CE
:1055A000014B185C08BD00BF53A203000138C0B214
:1055B000032808B504D94FF461710620FBF742F9BE
:1055C000014B185C08BD00BFB4A203000138C0B293
:1055D000032808B504D94FF461710620FBF732F9AE
:1055E000014B185C08BD00BFBDA30300F0B5284AFD
:1055F000A7B004460D4610686B46516802AE0F22F4
:1056000003C300210DF1890019F081FD0021102252
:10561000304619F07CFD16ABDDE9000183E803009C
:10562000234618AC03F128071868083353F8041C04
:105630002246BB4203C21446F6D1802306AA8DF847
:105640008830002302F8013B0133102BFAD196E891
:105650000F0012AC84E80F000AAA214606A813F036
:10566000C7FC01230EAA214606A88DF84B3013F083
:10567000BFFC2A460EA90AA8042319F0DFFC042364
:1056800005F1100229460AA819F0D8FC27B0F0BD90
:105690003AA2030000487047400D030010B590F88F
:1056A0001232042B0CBF0124002406D1062380F8FB
:1056B00012320349034817F0E5FF204610BD00BF32
:1056C000DF9101007414002008B5074BD868074B20
:1056D000584300F543305A3010F01CF918B96321D3
:1056E0008520FBF7AFF808BD74140020400D0300BF
:1056F00010B5144C2061144805F030FD2369D3F82F
:105700008420D27C012A09BF93F80D320023B3FA1A
:1057100083F35B0923750023E360FFF7D5FF20695E
:105720000AF09AFD18B972218520FBF78BF82069E1
:105730000AF0E8FF20B92069BDE8104013F0F8BC7A
:1057400010BD00BF741400207D57000008B5022171
:1057500008480FF0FAFF084B30B9DA680132DA6016
:10576000BDE80840FFF7B0BF1869BDE8084013F076
:10577000DFBC00BF400D03007414002010B5084CBE
:1057800020690BF04FF820B92069BDE8104013F0F4
:10579000CFBC237D1BB1FFF7D9FF0023237510BDBC
:1057A0007414002010B50A4C237D5BB109F052FE41
:1057B00020B12069BDE8104013F0BABCBDE810402C
:1057C000FFF7C4BF2069BDE810400BF03DB800BF33
:1057D00074140020014B024A1A607047E401002053
:1057E00024580000014B1868704700BFE4010020F6
:1057F00010B50D2140F6FF70FBF712FD0446074976
:10580000074817F039FF0CB90C2010BD94F812327C
:10581000062BF9D009F012FE0020F6E7E391010013
:1058200089140020955600002D910100F1560000CA
:1058300031910100A55700007D5700009D560000E2
:10584000064B10B51C6820460AF0ECFF20B9204634
:10585000BDE8104013F0C8BD10BD00BF9414002077
:10586000F7B50446072900F21481DFE811F00800BB
:10587000AE00B400B40012011201AA00B10090F809
:10588000123223B903B0BDE8F0400FF054BE90F8D7
:105890001232052B05D10F220021204613F0D8FD2E
:1058A000F0E74FF40C71806810F0E6FFA368283B26
:1058B000184410F02FF820B94FF4A2718E20FAF797
:1058C000C1FF94F81232032B06D094F81232022B47
:1058D00002D04FF4A471F1E7032384F81232D4F814
:1058E00084300D21B4F814222046B3F84730134415
:1058F000A381FBF7EFFC06460E21FBF791FC6946FE
:105900000546304616F04BFF08B18621D6E794F8DD
:105910000D3240F2712E95F83A710199B5F83421A3
:10592000C969B5F84C014A43B5F836110EFB00F0D1
:10593000B3FBF7F607FB16335643DBB203F1010C5A
:105940004B430EFB0363834201D99021B6E7BC456C
:10595000A0EB030300D0F1B93244904202D80422F4
:1059600084F81222D5F84821934218D2042284F8F0
:10597000122223F07F43D4F80022204663F317025B
:10598000C4F800220AF068FC60B9204603B0BDE804
:10599000F04013F029BD0EFB01F18B42DEE722F04F
:1059A0007F43E8E720460AF0ADFE0028EDD03A48F4
:1059B0000FF0B0FD39480FF0AFFD394B1C6003B05C
:1059C000F0BD0AF049FF032266E740F2FF1175E7D8
:1059D00040F2022172E7FF2380F8173290F812326A
:1059E00003F0FF0213B980F81722E8E790F81232AB
:1059F000052B07D10322002113F02AFD002384F890
:105A00001732F2E73023694680F8D031B0F810320F
:105A1000ADF8003019F0DDF8BDF800300228B4F818
:105A20001022A3EB020384F86030E7D001282CD1C8
:105A3000042384F812320D212046FBF74BFC0E2183
:105A4000FBF7EEFB94F80D3290F83A21B3FBF2F13C
:105A500002FB11330133DBB29A4202D0042384F8F3
:105A60001232D4F884302046B3F84710B4F8143218
:105A7000194489B2A1810AF011FF94F81232042B63
:105A8000BCD1204613F0B6FBB8E720460DF082FAF1
:105A9000D1E740F20A2111E7415800004D9401007E
:105AA00094140020014B024A5A607047941400205D
:105AB000615800000146407C202803D1024B586801
:105AC0000FF05EBD704700BF94140020024B034AE4
:105AD0001A60528B9A8070479C14002000080020A6
:105AE000014B1868704700BF9C14002008B503469E
:105AF00010465A1E032A10D84A1E032A0DD8084AF7
:105B0000012951700CBF00210A211071937091720C
:105B10001946FBF79FFD002008BD6FF01500FBE75D
:105B200000080020074B5A8A38B142F01002987AD8
:105B30005A82DA8A9A839877704722F01002988303
:105B40005A82F8E70008002010B4094C637A58B173
:105B500043F004030029637210460CBF002307239F
:105B6000637110BCFFF7DEBF03F0FB03F2E700BF79
:105B70000008002040EA4100014BD870704700BF88
:105B80000008002014280BD028280BD00A280BD19D
:105B90000323064A0020528B1340054A9380704726
:105BA0000223F6E70023F4E71E20704700080020D8
:105BB0009C140020014B9888704700BF9C14002063
:105BC00070B546680D4604460E213088FBF728FB69
:105BD000064980F8BB50B23017F04EFD002386F81E
:105BE00042312046BDE8704017F07BBF715D000078
:105BF0002DE9F0414768054688460E213888FBF7B5
:105C00000FFB0D2104463888FBF70AFB002680F8BD
:105C10001262094904F1B20084F8BB8084F8BC60C8
:105C2000A4F8BE6017F028FD87F843612846BDE858
:105C3000F04117F056BF00BFEF9701002DE9F0418A
:105C40004668054690F800800F4630880E21FBF725
:105C5000E7FA0D2104463088FBF7E2FAB8F1000FAD
:105C600003D096F88F30422B15D0002384F8417171
:105C7000A4F84431A4F84231A8B994F8413104F1B0
:105C8000B2000B4984F8BB30002384F8BC30A4F880
:105C9000BE3017F0F1FC002386F844312846BDE8F9
:105CA000F04117F01EBF90F81232002BE5D0F2E75A
