:10000000908A00203DED01009520030029ED0100BC
:1000100029ED010029ED010029ED010029ED010084
:10002000000000000000000000000000A1EE010040
:1000300029ED01000000000039EE010029ED01006A
:1000400041F0010041F0010041F0010041F00100E8
:1000500041F0010041F0010041F0010041F00100D8
:1000600041F0010041F0010041F0010041F00100C8
:1000700041F0010041F0010041F0010041F00100B8
:1002500041F00100EB43030041F0010041F00100D7
:1002600041F0010041F00100D543030041F00100DD
:1002700041F0010041F0010041F0010041F00100B6
:1002800041F0010041F0010041F0010041F00100A6
:1002900041F0010041F0010041F0010041F0010096
:1002A00041F0010041F0010041F0010041F0010086
:1002B00041F0010041F0010041F0010041F0010076
:1002C00041F0010041F0010041F0010041F0010066
:1002D00041F0010041F0010041F0010041F0010056
:1002E00041F0010041F0010041F0010041F0010046
:1002F00041F0010041F0010041F0010041F0010036
:1003000041F0010041F0010041F0010041F0010025
:1003100041F0010041F0010041F0010041F0010015
:1003200041F0010041F0010041F0010041F0010005
:1003300041F0010041F0010041F0010041F00100F5
:1003400041F0010041F0010041F0010041F00100E5
:1003500041F0010041F0010041F0010041F00100D5
:1003600041F0010041F0010041F0010041F00100C5
:1003700041F0010041F0010041F0010041F00100B5
:1003800041F0010041F0010041F0010041F00100A5
:1003900041F0010041F0010041F0010041F0010095
:1003A00041F0010041F0010041F0010041F0010085
:1003B00041F0010041F0010041F0010041F0010075
:1003C00041F0010041F0010041F0010041F0010065
:1003D00041F00100BF43030041F0010041F0010082
:1003E00041F0010041F0010041F0010041F0010045
:1003F00041F0010041F0010041F0010041F0010035
:1004000041F0010041F0010041F0010041F0010024
:1004100041F0010041F0010041F0010041F0010014
:1004200041F0010041F0010041F0010041F0010004
:1004300041F0010041F0010041F0010041F00100F4
:1004400041F0010041F0010041F0010041F00100E4
:1004500041F0010041F0010041F0010041F00100D4
:1004600041F0010041F0010041F0010041F00100C4
:0C04700041F0010041F0010041F00100EA
:10048000064A074B02604FF43672DB7882800822FE
:10049000C371002382710372704700BF2FC5010032
:1004A000280F0020064A074B02604FF4B472DB7A33
:1004B00082800822C371FF2382710372704700BFDC
:1004C000A3C00100280F0020074A9378D278134474
:1004D000064A02604FF4B872C371FF23828004227F
:1004E00003728271704700BF280F0020576F010010
:1004F00008B50122094B83F82A2002F0ABFA05F077
:10050000A1F819F00DF806490D2000F049FD054944
:100510000E20BDE8084000F043BD00BF280F0020BA
:1005200029050000C904000010B5044601F0BEF81A
:10053000074B0002074A93F8283000F51A70226032
:100540000822E371FF23A080A271237210BD00BFB7
:10055000280F0020416F01002DE9F341C41D002840
:10056000064624F007040CBF0020204600F02AFDB8
:10057000071E04DA6FF00B0002B0BDE8F081374DC2
:10058000E988A88803316B7A03302A7A89B280B26D
:1005900015F06CFF0028EDDB3C44A978EB78002EC9
:1005A00004F10304194424F0030400FB01F10CBF1F
:1005B0000020204600F0B4FE20440EB90028D9DB0C
:1005C000EA7A0446B2B1EB7B697C13441944FF29F3
:1005D000D0D80330002EAA89C9B220F003040CBF82
:1005E0000020204600F00EFF0028C3DB04440EB9B3
:1005F000002CBFDB012000F0DBFCB0B1A97BA1B176
:1006000095F82B3033B340234FF481720734002E1A
:1006100024F007040CBF0020204601F053FF0028FF
:10062000A8DB04440EB9002CA4DBAB7AFBB1EB7A57
:10063000B3B10734002EA97A24F007040CBF0020C0
:10064000204607F055F9002894DB04447EB9002CBD
:100650000DDA8FE725232822D8E700BF280F0020D6
:10066000012000F0A5FC10B1AB7B002BE1D1734B56
:100670001B6893B1A97D81B10334002EEA7D24F07B
:1006800003040CBF0020204698470028FFF672AFF5
:10069000044416B9002CFFF66DAF694B1B688BB193
:1006A000297C79B10334002E24F003040CBF002010
:1006B000204698470028FFF65DAF044416B9002C89
:1006C000FFF658AF5F4B1F68B7B1697CA1B1033427
:1006D000002E2B7D24F0030408BF0020009318BFD8
:1006E0002046EB7CAA7CB8470028FFF643AF0444C1
:1006F00016B9002CFFF63EAF072000F059FC98B168
:10070000A97D89B10334002E2A7E24F003040CBF96
:100710000020204600F064FF0028FFF62BAF0444C1
:1007200016B9002CFFF626AFB6FA86F795F8230027
:100730007F09A0B103346B7FA97E24F0070419441C
:100740003B4644F00404C9B2224600F089FF002869
:10075000FFF610AF044416B9002CFFF60BAF95F866
:10076000241000294CD004F10708002EEA8C28F050
:1007700007080CBF0020404615F08CFE041EFFF653
:10078000F9AE4444002E3ED1002CFFF6F3AEA97F13
:10079000002945D095F82230002B41D02A8C07340F
:1007A000002E02F1240224F007080CBF002040466E
:1007B00092B215F06FFE0028FFF6DCAE404416B989
:1007C0000028FFF6D7AE03302B7FA97E20F007006C
:1007D00019443B4640F0040495F82200C9B2224671
:1007E00000F030FF0028FFF6C5AE044486B9002CA7
:1007F000FFF6C0AEEB6AF3B1C6B1EC620020BBE617
:10080000002EC4D08846E98C40460CF0B1FEBEE70D
:100810002A8C4046A97F083292B20CF0AFFEE9E77D
:10082000002EE7D0002211461046F6E728343FF5A7
:10083000A1AE2046A0E6002EE0D1FAE7AC000020F1
:10084000B0000020B40000201FB572B6194B1C6B1D
:10085000ECB9BFF34F8F1849184BCA6802F4E06235
:100860001343CB60BFF34F8F00BFFDE7B2FBF6F23F
:100870002B465D1C002AF9D1DBB203F110056D4453
:1008800005F80C2C0A2233B901A8A047E1E702467B
:1008900000230A26EDE7013BDBB203F110050DEB67
:1008A0000506B0FBF2F502FB1500303006F80C0C23
:1008B0002846E8E7280F002000ED00E00400FA05D4
:1008C00013B5124C68462389ADF80030E388ADF8C3
:1008D0000430A388ADF8023003F0DCFF18B1FC212E
:1008E0009C20FFF7B1FF207D04F004F808B1FF2140
:1008F000F6E7E07C03F0F8FF10B14FF48071EFE70A
:1009000094F829000AF098FD02B010BD280F0020CD
:1009100070B5054600285BD014F032FC18B94FF0D2
:10092000FF34204670BD14F0A9FAB0F5FA7FF6D86E
:10093000294C012629482563002500F0B5FA2846F0
:1009400084F83450257084F82B50E56284F82A50DE
:100950000CF006F91A22294604F10F001CF0DEFA09
:100960001B2308210322A3802846E3800223A172CF
:100970001F216372E375F72322722384FB23A27382
:100980004922E3840A23A1812946E27484F82930AC
:10099000A670E670E672A674267602F0AFF82A46D4
:1009A0003146304602F066F8044620B140F2AD31DF
:1009B0009C20FFF749FF0246014602F089F8EFF359
:1009C000108572B600F082FE002DAAD162B6A8E7AB
:1009D0006FF01504A5E700BF280F0020C108000034
:1009E00038B51446002840F0EE80784D95F8343044
:1009F000032B00F0E58019B312B96FF0150038BD74
:100A00000139172900F2DF80DFE811F01800290012
:100A10002C0042006C0075009400480078007B00B8
:100A20008E004E005400620067009A009D00AC00EA
:100A3000AF00B200A300B500B900D2001378AB70CC
:100A40000020FFF789FD0028B7BF012302236FF0C4
:100A50000B0085F83430A8BF85F83430CFE7137821
:100A6000EB70EDE71379002BC7D05379002BC4D07E
:100A70001288FB2AC1D863881B3B9BB2E02BBCD8F1
:100A80001A2ABAD92368A2886B60514B9A80D7E79B
:100A90001378EA7B9342B0D3EB72D1E71378EA7A0A
:100AA0009342AAD8EB73CBE71378EA7A9342A4D89F
:100AB0006B74C5E71378002B9FD05378013BDBB2F2
:100AC000F82B9AD8138892786B82424B9A70B7E7CA
:100AD000107868750AF09AFCB2E71378002B8CD076
:100AE0002B76ADE7012000F063FA237808B1012BE3
:100AF00083D9AB73A4E71388AB81A1E71378AB75F7
:100B00009EE7072000F054FA18B92378012B7FF6EE
:100B100074AF072000F04CFA18B12378002B3FF493
:100B20006CAF2378EB758BE71378082B3FF665AF36
:100B30002B7485E71388FF2B3FF65FAFAB727FE71F
:100B400013786B767CE713780E2B3FF656AFAB76B7
:100B500076E72368204AC5F81E306368536023890E
:100B600013816DE71378EB766AE713786B7767E7A5
:100B700013782B7764E7137885F8283060E701F065
:100B800073FF98B1007900F001026178207801F0DC
:100B900071FF00287FF433AF6378012B7FF650AFED
:100BA0000CF050FC00287FF44BAF26E70246ECE740
:100BB00013785A1E092A3FF620AF85F829303FE7FF
:100BC0004FF0FF301BE76FF02C0018E7280F0020D4
:100BD0002C0F00203A0F0020460F0020F8B50D46DC
:100BE000064630B329B311F0070422D1124F97F80B
:100BF0003430012B02D16FF00B00F8BD032B02D172
:100C00004FF0FF30F9E700F079F80028F8D02846D7
:100C1000FFF7A2FC0028EEDB1BF08BFD3046F96AE3
:100C200004F02AFDFFF74CFE0323204687F83430FA
:100C3000E3E76FF01500E0E7280F002010B5074C40
:100C400094F83430032B03D104F032FD05F046FD57
:100C500015F04DFD002084F8340010BD280F002051
:100C600050B1074B03F1140253F8041B934240F8B0
:100C7000041BF9D1002070476FF01500704700BFCA
:100C800019D2030008B504F0A7FC03490320BDE80E
:100C9000084000F085B900BFA504000008B504F0C5
:100CA000AFFC03490220BDE8084000F079B900BF5D
:100CB0008104000008B5094B93F82A300BB9FFF7FF
:100CC00017FC01F0D1FE0121C078084001F016FFA9
:100CD0000FF0DAF9BDE8084011F020BD280F002020
:100CE00002680020014B1A60704700BF600F0020AF
:100CF000014B1B68184700BF600F0020024B1868AB
:100D0000003818BF01207047600F0020F7B5044677
:100D10002D4E071D2C48376005F0F8FC02280546CB
:100D200006D12949204614F0F1FC284603B0F0BD55
:100D3000042842D13378092B0AD0262B1ED0314605
:100D4000204614F05DFDB0F5817F2DD3722112E0B5
:100D500005213E2014F0ACFC0028F0D1F37801A965
:100D60003279684643EA0223ADF8003015F027F9DE
:100D70000028CFD053210820FFF766FD1A213E201E
:100D800014F096FC0028DAD17368694601A8C3F311
:100D90000F23ADF8043011238DF8063015F031F92A
:100DA0000028B7D06521E6E70028B3D0A1782078E5
:100DB00014F07EFC0028B8D1ACE70828B5D1024970
:100DC000204614F0DBFCB0E7640F0020074B4FF027
:100DD000FF3141F6FF72C3E9001205490022C1E963
:100DE00000221F21C3E90212704700BF400000200B
:100DF000681000203F280CD801380B4BC0F342127A
:100E000000F01F0053F8223023FA00F000F0010038
:100E10007047FF2806D04038044BC0F3421200F060
:100E20001F00EFE7012070474000002068100020FD
:100E3000074B0146006849681A4603C240F48C22F9
:100E40001A6041F0107242F4FF625A60704700BFAE
:100E5000400000200246024B0068516803C37047FF
:100E6000681000200246024B0068516803C37047B7
:100E70004800002008B5382800F1FF33DBB205D167
:100E800004F07EFC4078C0F3C00008BD5909054A53
:100E900003F01F0302EB81029068D84000F00100CC
:100EA000F3E700BF40000020014B1860704700BF0F
:100EB0007010002010B5FFF789FF17F0EEFD034B0F
:100EC00004461B6803B19847204610BD70100020EF
:100ED0000A8870B595B2C67CC2F30E020488023649
:100EE00002F118033444C35AA4B233442344013BEF
:100EF000B3FBF4F303FB0422438892B29342044B06
:100F00008BBF2B40AB4313439BB20B8070BD00BF24
:100F10000080FFFF4A1E062A08B50346084604D88B
:100F20004FF4D1711520FFF78FFC094A914202D985
:100F300040F2A311F6E711B903B1196008BD2BB156
:100F40001B680022C3E901211A1D1A600430F5E76D
:100F5000FAFFFF7F10B5114B00EB41041A7863894B
:100F6000B3FBF2F303FB0223013A1A44B2F5706FAC
:100F70000279807828BF00231A440B18B2FBF0F1E5
:100F800000FB11215B1AB3FBF0F100FB113313449A
:100F90006FEA43436FEA5343638110BD741000202E
:100FA000024B03EB80035960704700BF74100020B0
:100FB000034B03EB80035868003818BF01207047CB
:100FC000741000202DE9F04F10F0070A85B0054697
:100FD00004D040F261111720FFF736FC534F04464E
:100FE0004FF0010B07F15406B146B04657F8043BE9
:100FF0008DF80BA03BB101A898479DF80A30082B4B
:1010000001D9E821E7E79DF80B1041BB05B131603C
:101010004F4506F10406E9D1002D6ED00022DFF81D
:1010200010911427964689F8002058F827A0013F10
:10103000BAF1000F54D09AF804609AF802C0FF2E5B
:101040005FD039460023481C37D19C44BCF1FF0FC8
:101050003ED90AB189F800E040F22711BBE79DF8BC
:101060000AC04B1D60465A0004EB4303022838BFF8
:101070000220441E40422344BDF808406444CCF1A1
:10108000000C0340013C04EA0C04B4F5803F01D39A
:10109000F821A0E775B19A1A32609170148082F835
:1010A00003B09DF80C00107101984FEA104C1081AC
:1010B000A2F806C004FB0134AAE758F8210028B1C1
:1010C00090F804B0B34504BF80781B180139BAE723
:1010D000DBB2E6458AF804303CBF5FFA8CFE0122A1
:1010E0007B1CA2D10AB189F800E0142640F6FF6A01
:1010F00058F82670B7B9013EFAD2601B05B0BDE8BA
:10110000F08F0023E5E707EB410309F101093846B9
:10111000A3F80AA0FFF71EFF5FFA89F1BB788B42A4
:10112000F1D8E8E74FF00009F6E700BF781000209B
:101130007410002038B54FF6FF7302460380184B39
:1011400003EB8103986DA8B184780379B3FBF4F1C4
:1011500004FB1133DBB2194600EB4105B5F90A5027
:10116000002D0EDB0131B1FBF4F504FB1511C9B202
:101170008B42F1D1002038BD6381BDE8384015F0C5
:1011800042B900EB41046389C3F30E031380C278B4
:10119000002AF1D14FF4D5711720FFF755FB00BF9E
:1011A000741000201C4B03EB810370B59C6D054649
:1011B00044B3030404D54FF4DC711720FFF744FB5C
:1011C0000146204615F002F9FF28014604D02046CA
:1011D000BDE8704015F017B9A078B5FBF0F300FB3F
:1011E0001353DBB219460A1D04EB4206B6F902603E
:1011F000002E09DB0131B1FBF0F200FB1211C9B284
:101200008B42F0D1002070BD8B4201D00023E370EF
:1012100004EB42025580DAE774100020094B03EB1F
:101220008103014610B59C6D204615F0CFF8FF28CC
:10123000014604D02046BDE8104015F0E4B8002077
:1012400010BD00BF74100020F8B5104B074603EB2B
:10125000810301469C6D204615F0B8F8FF2805462D
:1012600011D0E288238953EA024606D0014620467F
:1012700015F0C9F801463846B04720462946FFF721
:1012800069FE0020F8BD0520FCE700BF74100020B7
:1012900038B50E4B0446827903EB8203986D08B98A
:1012A000052038BD8278E1799142F9D24B1CE37177
:1012B00000EB41035D89B3F90A30002BF3DBA58015
:1012C00015F0A1F820600020EBE700BF74100020AB
:1012D00008B5124B03EB81039A6D22B940F2262127
:1012E0001720FFF7B1FA9178831A481DA3EB40034A
:1012F0001088B3FBF0F3002B01DB994202DC40F2D3
:101300002921EDE702EB4302B2F90A305089002BA4
:1013100002DA40F22B21E3E708BD00BF7410002081
:1013200070B5044610F003000E4603D04E2118207D
:10133000FFF78AFAFFF7EEFD054624B10348314670
:101340000460FFF7E7FD284670BD00BF20110020B4
:101350002DE9F14FDFF870B01E4607460D46DBF869
:10136000003090469DF828A09DF82C901BB9602174
:101370001820FFF769FA52460921404614F0A6FEEC
:101380004A4684B20921304614F0A0FE81B2DBF84F
:101390000000214414F0EEFF386018B9286001B055
:1013A000BDE8F08F04445346414609222C6038685A
:1013B00014F04FFE4B4609223146286801B0BDE8C3
:1013C000F04F14F046BE00BF2011002070B50E464D
:1013D000044614F08EFE0546304614F08AFE044B97
:1013E0002A1821461868BDE8704014F0E8BF00BF15
:1013F00020110020024B186808B114F0AFBF7047ED
:10140000201100201F2AF8B5044613460ED892007A
:10141000033222F00303B3F5803F2DD2184DACB157
:10142000A00710D05F210920FFF70EFAFF2B4FEA2B
:10143000420204D9FF339A42A8BF1A46E8E77C2A41
:10144000B8BF7C22E4E729706C602B8122F0030294
:1014500028230127120403FB01F06B680025120CFE
:10146000EEB2B14200D8F8BD14B126181F705E600C
:10147000104401352833F3E74FF0FF30F3E700BFA6
:1014800024110020154A002170B553681578C8B2A0
:10149000854203D8AB210920FFF7D6F91C46184630
:1014A000013114F8286B0EB92346F0E7002199703A
:1014B00001241289996103F126055C709208D961B3
:1014C00003F11E04596824F8022FA54243F8041FB3
:1014D0001144F8D100234361037070BD2411002032
:1014E0000A4B1B89B3F5FF7F4FEA930006D25A08D7
:1014F0009B1A9BB2984238BF18467047B3F5EE6FFF
:1015000001D8FF22F4E740F27263F3E724110020D0
:101510004B782DE9F04106460C4602F0040702F034
:10152000FB05E3B1A5BBFF23A3707B0804EB5707C2
:101530003A7D032A02D1022D18BF0133E21801219E
:10154000117503F10C01002204EB830324F8112030
:101550005B68A27030463360B280BDE8F081002D38
:10156000E1D1012301F11E028D6120464B7004F18F
:10157000260C1A4BCD611B8949689B0822F8023F53
:10158000944540F8041F1944F8D100236361CAE769
:10159000D1F8048014220021A01861701BF0BEFC59
:1015A0000E4B1B89B3F5FF7F0FD25A089B1A9BB2D3
:1015B00008EB0301C4F804802384A1606284C4F8AA
:1015C0000C80A3842161E284ADE7B3F5EE6F4FF0A8
:1015D000FF02EBD940F27263EAE700BF241100205A
:1015E0002DE9F84305460C46F7200521914614F0F5
:1015F0006DFD061E21DB1DB906FB04F0BDE8F88376
:1016000015F0030703D098211920FFF71DF9DFF823
:101610003080C8F81050A8F81460BBB29C42EBD9D7
:10162000B8F814504B46D8F810000522F72107FBF4
:101630000500013714F00DFDEFE74FF0FF30DDE757
:101640003811002007B5CDE900230B4603490246B7
:10165000081D15F026F803B05DF804FB50110020BA
:1016600013B5064CCDE900230B46024604F10801F0
:1016700004F10C0015F015F802B010BD5011002057
:1016800008B54B1E032B03D923219020FFF7DCF86C
:101690000028054A0CBF05230C2303EB8103053307
:1016A00023F00103137008BD60110020014B18786E
:1016B000704700BF60110020034B00F262201B78CE
:1016C00001FB0300704700BF601100201F4B4FF06B
:1016D000FF3000211A6801235360C2F80803C2F8E2
:1016E0000015C2F804351A4A12685360C2F808039C
:1016F000C2F8001540F6FE71164A1748C2F80815E0
:10170000B0F90020002A0CDB510902F01F029340BF
:1017100001F12002114941F82230BFF34F8FBFF38E
:101720006F8FB0F90030002B09DB5A09012103F05B
:101730001F03994002F16003084A42F82310054B49
:1017400040F6FE72C3F80825704700BF081D002050
:10175000041D0020002008501C1D002000E100E0B6
:101760000A4606483D2302F8033BC368C1F803302C
:101770000369536043699360704700BF681100209C
:10178000024B5A8C02435A845B6A18476811002046
:10179000014B00215B6A18476811002010B5154CF9
:1017A0000AF004FE0AF09AF8208DFFF7F1FF237E7D
:1017B00063B12246104904F1190052F80C3BE36072
:1017C00063685360A368936019F0F8FA0B4B228D9D
:1017D00093E8030006F0BCF8236B188806F03EF887
:1017E000A36B94F8341094F835009847002384F8DC
:1017F0003C3010BD681100206117000094110020DA
:10180000034B93F83C300BB1FFF7C8BF704700BFE4
:101810006811002070B5254C0646256B636C95F861
:101820009420236494F8483095F8751003EB8200F7
:101830002EB9FF2803D195F874308B4201D00AF0FD
:1018400031FC95F8943053B3E06C0AF091FE94F8B3
:101850002C30E16C003B206C18BF012384F8703001
:10186000D5E93C23C4E9182309F0BCFF5EB995F81B
:101870007530033B012B2B8F8CBF00202820184490
:1018800080B20AF0BDFEA88E0AF0B0FB95F8741085
:1018900000200AF0FDFE022384F83C3070BD206C6D
:1018A0000AF066FE0AF01AF8E0E700BF68110020AF
:1018B0000138C0B2032808B504D940F29D41062082
:1018C000FEF7C2FF014B185C08BD00BF9F7003000C
:1018D00008B5094B93F83C20022A04D040F24F216E
:1018E0002720FEF7B1FFDA7A42F00102DA72BDE892
:1018F0000840FFF753BF00BF6811002003280B4BBF
:1019000010B5044605D19A6FD278022A01D1002081
:1019100010BDD86F14F06CFC0028F9D1032CF6D060
:1019200004F0F2F880F00100C0B2F1E76811002085
:1019300038B52F4C054694F82C307BB101280DD1D9
:10194000638C18070AD5A26F137803F00303032BE7
:1019500004D1D378022B01D1012038BD0129FBD855
:10196000D4F88030284698470028F5D094F8340001
:101970000028F1D194F82C301BB9012D03D0184662
:10198000EBE7002DE9D194F8845025B194F8850057
:10199000FFF7B4FF0546606C18F005FFD4F88830F7
:1019A000ABB9B4F88C30B3FA83F35B0994F82C101C
:1019B000628C71B191070CD5A26F137803F0030309
:1019C000032BC9D1D078023818BF0120C5E7012305
:1019D000ECE7002AC0D1012814BF002303F0010363
:1019E00043EA050080F0010000F00100B5E700BF08
:1019F000681100202DE9F043334C85B00746884636
:101A000094F83C30012BDEB204D040F20451272080
:101A1000FEF71AFF256B02A8A16F14F06AFE95F875
:101A200084309DF8089053B10021042085F884107B
:101A3000FFF7A6FE94F82C300BB185F88660B9F15B
:101A4000030F29D0BDF80C30002B18BF022695F8E3
:101A5000943085F88A60CBB194F82C30216B003B30
:101A600094F8486091F8750018BF012384F870302D
:101A7000D5E93C23C4E91823FFF71AFF00220346E7
:101A8000124900920220324609F0DAFD6FB105B02A
:101A9000BDE8F043FFF782BE95F88A301BB9A16F0D
:101AA0000220FFF76DFE0326D1E7B8F1000FEED05C
:101AB00039463846FFF73CFF0028E8D105B0BDE8BD
:101AC000F043FFF7A7BE00BF68110020B811002047
:101AD00010B5094CD4F8883023B940F2F6412720DC
:101AE000FEF7B2FEB4F88C201846216C033213F0D6
:101AF00011FD206410BD00BF681100202DE9F341E5
:101B0000714C0023256B8DF8053095F8741058B989
:101B100095F8942094F8483003EB8203FF2B03D10F
:101B200095F875308B4202D0FF200AF0BBFA95F889
:101B30008A30032B00F2BB80DFE803F0023598AB5C
:101B400094F88E306148ADF80630A5F8643003F0A3
:101B5000B1FF58B10121A36F85F88510DB781B2BED
:101B60001DD105F110000AF0E9FA18E00DF10502A7
:101B70000DF10601E06F14F0E3FAA06798B195F853
:101B8000CF3083B99DF805302BB9038001218370D4
:101B9000A06F18F0F8FDA36FBDF806205A7001235E
:101BA00084F88F3001E04A4BA367A76F95F88B202C
:101BB0003B78D20003F0030603F0F30302F00802BF
:101BC0003046134395F88C20920002F00402134330
:101BD0003B70FFF793FE3B7823F0100343EA0013BA
:101BE0003B70A06F90F8018018F0E1FD95F89330FC
:101BF000071E18BF0127002B5CD0B8F1000F59D089
:101C0000E06C0AF0B5FC94F82C30E16CB3FA83F385
:101C1000A06F5B0984F87030D5E93A23C4E9182332
:101C20003A460AF0CDFE18B9A16FE06C09F06EFDDE
:101C3000304614F08BFDE88E0AF0D8F995F875104F
:101C4000012001250AF024FDA06F84F8935018F0BC
:101C5000AAFDA36F84F884001B7884F83C5003F03D
:101C6000030384F8853002B0BDE8F081B5F8643034
:101C70000DF105020DF10601E06FADF8063014F02C
:101C80005FFAA06700288AD140F2F1212720FEF7F1
:101C9000DBFD0E4803F00EFF10B940F2FB21F5E723
:101CA000A36FDB781B2B7FF47AAF012159E740F259
:101CB0000931EBE7A06F0AF05BFC09F00FFE394633
:101CC000A06F1AF05FFDB3E768110020E01100205B
:101CD000F8110020064B10B593F83C2002F0FF04E9
:101CE00022B91C7605F02CFE204610BD0C24FBE723
:101CF000681100200A4B0B4A70B506460D461A6063
:101D0000FFF7E8FF18B1F4212720FEF79DFD064CF0
:101D1000012104F1900018F036FD6664E56470BDA1
:101D2000B8000020B424000068110020024B0122FA
:101D300083F89420704700BF68110020F0B585B08B
:101D40009A4C02AE0A9F86E8030094F83C1001F01A
:101D5000FF0511B90AB103B127B940F28311272059
:101D6000FEF772FD96E8030004F12C0C84F8945001
:101D700084F8345084F8955084F8355084F89350A2
:101D800084F88F50658425856262C4F88030A7632B
:101D90008CE80300256B0AF0F3F909F09FFD95F933
:101DA0007C000AF053FAAE6A286A0AF055FA304607
:101DB0000AF0C2FB95F8A4000AF058FA94F82C60D7
:101DC000002E40F0A78019F072FE95F87420784B31
:101DD0004FF47A7153F8223003F5FA73B3FBF1F341
:101DE0005433191830460AF0CDFA724B724E05F58D
:101DF000847718680AF0A6FB6B69E367AB69C4F8DF
:101E0000983005F1F8031868083353F8041C32467B
:101E1000BB4203C21646F6D15968684AD5F8080194
:101E200003C2226B92F88E3092F87460A3F12601FF
:101E3000012903D992F88F10262976D194F82C30F5
:101E4000002B6FD192F80A12304614F06FFC064650
:101E500005F13C073146384619F0B2F8314618F022
:101E60000FF9B5F8483095F87510834228BF03463E
:101E7000384684F88E3019F051F895F8751095F8B9
:101E800094700429B5F8506008BF032118F0F8F8E1
:101E90000FB9043080B2864228BF0646F6B284F8F5
:101EA0009C6004F02BFD28B104F02EFDB04238BF39
:101EB0003046C6B294F82C7084F84860002F5AD18E
:101EC00095F893308BB1012395F8740084F8703045
:101ED000D5E93A23C4E91823FFF7EAFCFB220346BD
:101EE00035490420009709F0ABFB0120FFF706FEFF
:101EF000002323606360A360B5F8883063802B887B
:101F0000238095F8A4302371AB6F0BB101221A60C6
:101F100005B0F0BD19F0CBFD95F8752000F1760104
:101F2000012060E792F8A2128EE7213B012B11D825
:101F3000242911D094F82C30CBB192F82E315A07C5
:101F400013D413F001017FF47FAFC3F340035B00B0
:101F5000D9B279E724290AD194F82C303BB192F810
:101F60002E3192F86D201340E9E704216CE7032E2F
:101F700008BF04266CE795F8943093B1012395F8D7
:101F8000750084F87030D5E93C23C4E91823FFF7C5
:101F90008FFC00220346084900920220324609F0D5
:101FA0004FFB0120FFF736FCA2E700BF68110020BD
:101FB000DC730300B8000020B8110020D01100200D
:101FC00008B5114B93F83C201AB9BDE80840FFF75B
:101FD000E5BB93F82C2042B993F83C30012B12D08A
:101FE00040F22D212720FEF72FFC93F83C20022AF7
:101FF00002D040F23121F5E71B6BD3F8D801BDE8E0
:1020000008400AF0D1BA08BD68110020014B1876CB
:10201000704700BF68110020014B93F89300704790
:1020200068110020044B93F88F0018B993F8290029
:10203000C0F30010704700BF68110020024B93F8F6
:102040002900C0F3C000704768110020014B93F8CD
:1020500095007047681100202DE9F043314D85B09F
:1020600004460F4602A8296C2E6B14F042FB14F0B4
:102070000109BDF80C8004F0020428D0002385F883
:102080009D3094B1FFF724FD0DF1020201A9D5F8AE
:10209000980014F059F9019814F03CF901223860C5
:1020A0004146D5F8980014F0E4F8B9F1000F0BD0D0
:1020B000D6E93C32013342F10002C6E93C3296F8DF
:1020C0008C30013386F88C3005B0BDE8F08395F88C
:1020D0009D30032B20D801A252F823F0832000006A
:1020E000ED2000000721000007210000002CEBD0AC
:1020F000FFF7EEFC00224146D5F8980005B0BDE898
:10210000F04314F0B6B8002CDED0D5F8980005B036
:10211000BDE8F04314F014B940F2A2412720FEF7C5
:1021200093FB00BF681100202DE9F04F0023B74C4E
:1021300087B080468A46276BCDE9023394F83C305D
:10214000022B04D040F28B512720FEF77DFB216C3F
:1021500004A814F0CEFABDF8146097F89430B8F1E2
:10216000000F00F059819DF810909DF811B0002BE0
:102170003AD009F0C1FBB8BB6EB197F88C3003F0D0
:1021800001035B450BD1012384F83530FFF706FBD3
:1021900007B0BDE8F08FA4F88C60002006E0A4F83A
:1021A0008C603146D4F8980014F043F8238D9DF8E4
:1021B000122043F40073C4F88800238597F88B300D
:1021C00003F001039A4200F0C880256B95F88A302D
:1021D000002B3FD0022B13D102A9E06F13F0D2FFE6
:1021E00038B940F23B41AFE7A4F88C60002ED4D060
:1021F000D7E7D5E93A32013342F10002C5E93A3274
:10220000002194F82C3085F88A103BB195F886307F
:1022100023B1102085F88610FFF7B2FA95F88530C3
:102220009BB1002185F8851003F056FC002110B900
:1022300040F2524188E70820FFF7A2FAD5E93A3286
:10224000013342F10002C5E93A3295F88B3001338F
:1022500085F88B30238D002543F40063238597F8A0
:102260008C3003F001035B4579D0002648464FF0DF
:10227000000914F06BFA97F89330B3B194F82C304E
:1022800097F87400B3FA83F35B0984F87030D7E9E8
:102290003A23C4E91823FFF70BFB002203465C49ED
:1022A00000920420FB2209F0CBF9BAF1000F00F0F4
:1022B000DE800AF023FA002E40F0F1804FF0010991
:1022C000238D5A0606D44020FFF762FA238D43F08F
:1022D0004003238585B194F82C3043B1B4F807202E
:1022E000B4F805301343B7F88820134304D0B4F88A
:1022F00009300133A4F80930B8F1000F00F0D480A0
:10230000B4F805300133A4F80530002384F8953083
:10231000404805F091FA029830B113F0FBFF216BB1
:102320000022027204F036FA039B33B1216B0022C3
:102330001A720C22039804F0FBF9B9F1000F7FF434
:1023400025AF238D1B063FF523AF8020FFF720FA32
:10235000238D43F0800323851AE745467FE7B9F1D3
:10236000020FD4F830B012D8B9F1000F1DD19BF88C
:102370008C3001338BF88C30002E3FF476AFDBE9E4
:102380003C32013342F10002CBE93C326DE7B9F156
:10239000030FECD1238D0120216C43F480538BF883
:1023A00084002385FFF7ECF9E1E7002EDFD0238DD1
:1023B0009BF894B043F48053238509F025FE04284C
:1023C00094F89C3007D1BBF1000F0CBF1F221B22D9
:1023D000934228BF13469E420BD8D4F88830002B76
:1023E0003FF443AF94F894306BB12020FFF7D0F95D
:1023F0003BE794F83430012043F0100384F8343084
:1024000011F052FD31E7464630E700BF6811002069
:10241000B8110020941100200BB109F081FA94F852
:102420009530013384F89530238D43F48063238500
:1024300097F87530033B012B11D8012011F034FDC2
:1024400009F0E2FD011FD1F1000949EB01091B2E42
:102450004FF0000698BF4FF0000935460BE704F037
:102460004DFA81460028E8D10646054603E794F870
:1024700095100120FFF75CFA00287FF41AAF1EB117
:1024800003A90120FFF7E8FD0020FFF737FB002E2E
:102490003FF416AF03A90220FFF7DEFD10E703A902
:1024A0000320FFF7D9FD09E7B4F807300133A4F89A
:1024B00007302DE7D118000029210000F519000090
:1024C00001180000343270B5054692B20C461E4623
:1024D00013F0E0FF25B1034A55601474567414706C
:1024E00070BD00BF20120020014B1870704700BF64
:1024F000510000200138C0B2032808B504D94FF4B8
:1025000061710620FEF7A0F9014B185C08BD00BF01
:10251000CE7003000138C0B2032808B504D94FF4C7
:1025200061710620FEF790F9014B185C08BD00BFF1
:10253000EB7003000138C0B2032808B504D94FF48A
:1025400061710620FEF780F9014B185C08BD00BFE1
:102550004C7103000138C0B2032808B504D94FF408
:1025600061710620FEF770F9014B185C08BD00BFD1
:1025700055720300F0B5284AA7B004460D4610680E
:102580006B46516802AE0F2203C300210DF1890092
:102590001AF0C4FC0021102230461AF0BFFC16AB22
:1025A000DDE9000183E80300234618AC03F12807A6
:1025B0001868083353F8041C2246BB4203C2144671
:1025C000F6D1802306AA8DF88830002302F8013B5B
:1025D0000133102BFAD196E80F0012AC84E80F00FB
:1025E0000AAA214606A814F0D7F801230EAA21460C
:1025F00006A88DF84B3014F0CFF82A460EA90AA889
:1026000004231AF0D9FB042305F1100229460AA875
:102610001AF0D2FB27B0F0BDD2700300004870471B
:10262000400D030010B590F81232042B0CBF0124AA
:10263000002406D1062380F812320349034818F01B
:10264000BAFB204610BD00BF87690100E4120020DC
:1026500008B5074BD868074B584300F543305A304C
:1026600011F00EFC18B963218520FEF7EDF808BDC6
:10267000E4120020400D030010B5144C20611448F2
:1026800005F080FA2369D3F88420D27C012A09BF9F
:1026900093F80D320023B3FA83F35B09237500230B
:1026A000E360FFF7D5FF20690BF098FC18B97221A1
:1026B0008520FEF7C9F820690BF0E6FE20B92069F5
:1026C000BDE8104014F008B910BD00BFE4120020AE
:1026D0000527000008B50221084811F0ECFA084B64
:1026E00030B9DA680132DA60BDE80840FFF7B0BF00
:1026F0001869BDE8084014F0EFB800BF400D0300B2
:10270000E412002010B5084C20690BF04DFF20B9F1
:102710002069BDE8104014F0DFB8237D1BB1FFF73E
:10272000D9FF0023237510BDE412002010B50A4C18
:10273000237D5BB10AF05CFD20B12069BDE810404B
:1027400014F0CAB8BDE81040FFF7C4BF2069BDE867
:1027500010400BF03BBF00BFE4120020014B024AC7
:102760001A607047BC000020AC270000014B1868BD
:10277000704700BFBC00002010B50D2140F6FF706F
:10278000FEF74CFD04460749074818F00EFB0CB94C
:102790000C2010BD94F81232062BF9D00AF01CFD63
:1027A0000020F6E78B690100F91200201D260000C9
:1027B000D568010079260000D96801002D270000A6
:1027C0000527000025260000064B10B51C68204692
:1027D0000BF0EAFE20B92046BDE8104014F0D8B94D
:1027E00010BD00BF04130020F7B50446072900F20E
:1027F0001481DFE811F00800AE00B400B40012014B
:102800001201AA00B10090F8123223B903B0BDE85A
:10281000F04011F046B990F81232052B05D10F2285
:102820000021204614F0E8F9F0E74FF40C718068BD
:1028300012F0D8FAA368283B184411F021FB20B904
:102840004FF4A2718E20FDF7FFFF94F81232032B94
:1028500006D094F81232022B02D04FF4A471F1E7A3
:10286000032384F81232D4F884300D21B4F81422F2
:102870002046B3F847301344A381FEF729FD0646EE
:102880000E21FEF7CBFC69460546304617F05AFB91
:1028900008B18621D6E794F80D3240F2712E95F8F2
:1028A0003A710199B5F83421C969B5F84C014A4328
:1028B000B5F836110EFB00F0B3FBF7F607FB163345
:1028C0005643DBB203F1010C4B430EFB036383421F
:1028D00001D99021B6E7BC45A0EB030300D0F1B9C4
:1028E0003244904202D8042284F81222D5F84821BA
:1028F000934218D2042284F8122223F07F43D4F8A2
:102900000022204663F31702C4F800220BF066FB96
:1029100060B9204603B0BDE8F04014F039B90EFBB1
:1029200001F18B42DEE722F07F43E8E720460BF01F
:10293000ABFD0028EDD03A4811F0A2F8394811F06B
:10294000A1F8394B1C6003B0F0BD0BF047FE032229
:1029500066E740F2FF1175E740F2022172E7FF23BC
:1029600080F8173290F8123203F0FF0213B980F8A2
:102970001722E8E790F81232052B07D10322002135
:1029800014F03AF9002384F81732F2E7302369464D
:1029900080F8D031B0F81032ADF8003019F0D7FF20
:1029A000BDF800300228B4F81022A3EB020384F82B
:1029B0006030E7D001282CD1042384F812320D2195
:1029C0002046FEF785FC0E21FEF728FC94F80D3218
:1029D00090F83A21B3FBF2F102FB11330133DBB281
:1029E0009A4202D0042384F81232D4F8843020466C
:1029F000B3F84710B4F81432194489B2A1810BF02E
:102A00000FFE94F81232042BBCD1204613F0C6FFFF
:102A1000B8E720460EF038FDD1E740F20A2111E771
:102A2000C9270000F56B010004130020014B024A86
:102A30005A60704704130020E92700000146407CDB
:102A4000202803D1024B586811F050B8704700BFDE
:102A500004130020024B034A1A60528B9A8070477D
:102A60000C130020EC060020014B1868704700BFD3
:102A70000C13002008B5034610465A1E032A10D82E
:102A80004A1E032A0DD8084A012951700CBF0021A3
:102A90000A211071937091721946FEF7F1FD002022
:102AA00008BD6FF01500FBE7EC060020074B5A8AC3
:102AB00038B142F01002987A5A82DA8A9A8398776B
:102AC000704722F0100298835A82F8E7EC06002043
:102AD00010B4094C637A58B143F0040300296372BF
:102AE00010460CBF00230723637110BCFFF7DEBF45
:102AF00003F0FB03F2E700BFEC06002040EA4100D0
:102B0000014BD870704700BFEC06002014280BD092
:102B100028280BD00A280BD10323064A0020528B09
:102B20001340054A938070470223F6E70023F4E739
:102B30001E207047EC0600200C130020014B9888E3
:102B4000704700BF0C13002070B546680D46044660
:102B50000E213088FEF762FB064980F8BB50B23088
:102B600018F023F9002386F842312046BDE8704072
:102B700018F011BBF92C00002DE9F041476805461B
:102B800088460E213888FEF749FB0D210446388817
:102B9000FEF744FB002680F81262094904F1B200F6
:102BA00084F8BB8084F8BC60A4F8BE6018F0FDF81F
:102BB00087F843612846BDE8F04118F0ECBA00BF41
:102BC000976F01002DE9F0414668054690F80080B6
:102BD0000F4630880E21FEF721FB0D210446308878
:102BE000FEF71CFBB8F1000F03D096F88F30422B94
:102BF00015D0002384F84171A4F84431A4F842317F
:102C0000A8B994F8413104F1B2000B4984F8BB3003
:102C1000002384F8BC30A4F8BE3018F0C6F80023B6
:102C200086F844312846BDE8F04118F0B4BA90F86F
:102C30001232002BE5D0F2E7976F010038B54368F8
:102C400014460D460E211888FEF7E8FAB4B9B0F81C
:102C50004431B0F84221A0F844419B1AA0F8424107
:102C60001BB290F8A2205AB980F8A3509A3084720F
:102C700083810449BDE8384018F097B80023F0E795
:102C800038BD00BF976F010010B500880C460E21BB
:102C9000FEF7C4FA90F870305BB980F8714014B94F
:102CA000FF2380F8C03003496830BDE8104018F0B9
:102CB0007CB810BD6F71010070B5466804460D46C2
:102CC0000E213088FEF7AAFA90F87A304BB980F8D6
:102CD0007B5015B9FF2380F8C2300649723018F0D6
:102CE00064F8002386F841312046BDE8704018F0B2
:102CF00052BA00BF75770100F8B50C460E210646A2
:102D0000FEF7E6FA0E210746FEF788FA054600238D
:102D100080F8C3303123A7802370737AE37090F872
:102D2000123103F03F03A37190F8F430012BE371EB
:102D300055D190F800310026237290F80431637267
:102D400090F80131A37290F80231E37290F80331E8
:102D5000237390F80531637390F80831A37390F8EA
:102D60000731E37390F80631013BDBB2072B96BFC6
:102D70001C4AFF23D35C2374D0F8F530C4F811301B
:102D8000D0F8F930C4F81530B0F8FD30A4F8193097
:102D900090F8FF30E37690F80931237790F80A3104
:102DA000637790F80B31A377E67790F80E3184F8CB
:102DB000203090F80F3184F8213090F80C3184F8ED
:102DC000223090F80D3184F8233002F0D9FC0368EA
:102DD0001B0505D595F81131012B01D1E377F8BD1D
:102DE000E677FCE7DA700300502808B51DD018D844
:102DF00028280CD8092806D9A0F10A020C4BD2B217
:102E0000D340DB0707D43121D620FDF71DFD322842
:102E100001D03C28F7D10A23B0FBF3F00138C0B24F
:102E200008BD9128EFD10720FAE70620F8E700BF98
:102E3000010410404B680E2130B5054689B0188852
:102E4000FEF7ECF904461B22002101A81AF066F8EF
:102E500094F8123194F8F42003F03F0343EA82130C
:102E60008DF8043003F0C003402B40F0A880D4F864
:102E7000F53094F80721CDF80530D4F8F93002F098
:102E80000F0294F80911CDF80930B4F8FD30ADF80F
:102E90000D3094F8FF308DF80F3094F800318DF834
:102EA000103094F80431FF2B8DF811301FBF94F8C7
:102EB00001318DF8123094F802318DF8133094F806
:102EC00003318DF8143094F805318DF8153094F8ED
:102ED00006318DF8163094F808311B0103F03003E9
:102EE00013439DF8172022F03F0213438DF817304B
:102EF0009DF8183061F30303DAB28DF8183003F04F
:102F00000F03012B0AD1134694F80A2162F3071329
:102F10008DF8183094F80B318DF8193094F80E01B3
:102F2000FFF762FF8DF81A0094F80F01FFF75CFFBE
:102F300094F80C318DF81B00642B2CD025D8502B25
:102F40002BD03C2B05D81D2B07D80F2B0CD0142BC6
:102F50000AD05C21D620FDF777FCA3F11E011D4AA3
:102F6000C9B2CA40D107F4D50A22B3FBF2F3013B40
:102F7000DBB28DF81C3094F80D31142B11D0282BB6
:102F800023D00A2B23D04221E4E7782B07D0962BBD
:102F9000DFD10923EDE70723EBE70623E9E7082361
:102FA000E7E701238DF81D3094F811315A1E534282
:102FB00053419DF8172063F386128DF8172001A95D
:102FC000284617F0A0FC09B030BD0223EAE7002331
:102FD000E8E700BF01041040436810B50C461888AC
:102FE0000E21FEF71BF9044980F885407C30BDE8CE
:102FF000104017F0E3BE00BFF92C00002DE9F04FA0
:1030000090F8008089B007468A464668B8F1000FFC
:1030100008D0D6F8805015F480650DD0012009B095
:10302000BDE8F08F96F88F30002BF7D1302196F85D
:103030008E0014F003F8054602F09CFB0A0401F42C
:10304000004940F10D8196F89330002B00F00A8181
:1030500096F89430002B00F0058185B9D7F804B0BC
:103060000E21BBF80000FEF7D9F801A9044650462E
:1030700017F081FC01A814F07FFCD8B91E25B8F127
:10308000000F03D096F88F30002BC7D12A4630218D
:10309000384618F0ADF8322386F88F30B9F1000FBA
:1030A00003D029463846FFF797FF384618F07CF8DA
:1030B0000020B4E79DF8043003F0C003402B00F07B
:1030C000A5800D21BBF80000FEF7A8F8002840F00D
:1030D000A6809DF80430C3F3050103F03F0203F01E
:1030E000C003402B40F0AE8094F813311BB994F824
:1030F00012319A42C2D1012384F8121184F8F430BB
:10310000002384F81331DDF80530C4F8F530DDF81C
:103110000930C4F8F930BDF80D30A4F8FD309DF841
:103120000F3084F8FF309DF8103084F800319DF89E
:10313000113084F804319DF8123084F801319DF883
:10314000133084F802319DF8143084F803319DF86F
:10315000153084F805319DF8163084F806319DF855
:103160001730C3F3030203F03003B3FA83F384F898
:1031700007215B0984F808319DF81830C3F3030276
:10318000C3F3031384F80A319DF8193084F8092138
:1031900084F80B319DF81A30052B47D8013303EB27
:1031A00083035B00DBB284F80E319DF81B30052BE6
:1031B00041D8013303EB83035B00DBB29DF81C2095
:1031C00084F80F31082A97BF2B4B96239B181B7A44
:1031D00084F80C319DF81D30002B31D0012B0CBF31
:1031E0001423282384F80D3102F0CAFA03681B0562
:1031F00044BF9DF81750C5F3801584F81151B8F1FC
:10320000000F31D1372386F88F304EE7214601A8D1
:1032100014F022FC00287FF454AF20252FE790F80B
:103220001232002B3FF455AF0C2528E7062B0CBFBC
:1032300050239123B7E7062B0CBF50239123BDE702
:103240000A23CFE794F812319A427FF417AF002394
:10325000012284F8F43084F8132184F81431CEE785
:103260001A250CE72F250AE7D6F8803043F480634F
:10327000C6F8803019E700BFDA7003002DE9F0418D
:1032800046680446884696F88F707FBB02F072FA53
:103290000B040DD41A223921204617F0A9FF32233E
:1032A000204686F88F3017F07FFF3846BDE8F08162
:1032B00096F8933013B196F894300BB92F22EAE7C1
:1032C00063680E211888FDF7A9FF054600F1DF03AA
:1032D00000F1D70200F1C701404617F0FBFA04499C
:1032E00005F1860017F067FD3923D9E70127DCE7F0
:1032F000E77B0100436810B50C4618880E21FDF7E6
:103300008DFF044980F898408F30BDE8104017F0D9
:103310004CBD00BF6D7B01002DE9F74F1E461368C1
:103320008346154637680093BB4204D94FF48B712E
:10333000D320FDF789FAD1F804A09AF87F0002F0B3
:103340004DFF04460AF13C0017F0E6FDDAF83C3088
:10335000610098421FFA81F838BF1846414600F5CF
:10336000E979484611F03EFD9AF874202D4B00F1A2
:103370001004DAF81C00414653F822304FF47A72F8
:103380004C4403F2E733B3FBF2F3DBF84821A533F7
:103390002732C72B024438BFC723B2FBF0F2504399
:1033A000019311F01FFD9BF83A218146BBF83601CD
:1033B0004146019B5043DBF8482102F1480B40F2A3
:1033C000712202FB00BBDAF81C009B4411F00AFDDD
:1033D000DAF81C10D944484481429CBFB0FBF1F399
:1033E00001FB1300009B081A0139814228BF0146E6
:1033F0008C4228BF0C46A34238BF2346BB421C4622
:1034000028BF3C46A1422C6038BF2146B94228BFA4
:1034100039468C42316002D94FF4B07188E703B06D
:10342000BDE8F08FDC73030070B5441EE5B21F2DBC
:103430000ED8A1F2E2460D4DAE4209D840F27126F7
:10344000012806FB02F505D001F19602954203D250
:10345000002009E0002AFBD106FB03F005FB041164
:10346000884234BF0020012070BD00BF1D043D0014
:103470002DE9F0414D688AB00746884628880E211C
:10348000FDF7CCFE95F88E3004463B2B51D0614BB6
:103490004FF4FA72CDE90223D0F8246190F82801A4
:1034A0000EF090FAA022014604F1F5000EF054FB54
:1034B0000123864294BFC4F84861C4F8480100263D
:1034C00002AA414684F83A31204603ABA4F836619B
:1034D000FFF722FF029BD4F8481123F07F43C4F882
:1034E0002C31039B23F07F425033C4F83021B5F8D0
:1034F00088200632A4F83821EA6913440B44B3FB50
:10350000F2F30133A4F83431B4F81831A4F84C3193
:10351000B4F81E31012BA4F8503194F8283118BFAB
:10352000B4F81C6184F852310F23A4F84E6184F87A
:10353000563194F8293102AA0DF1070128468DF879
:10354000073094F82A318DF8083014F0F4FB1C226F
:10355000002103A819F0E2FC94F812214FF00003B7
:1035600003A9384662F305038DF80C30B4F83831FE
:10357000ADF80D3094F82C318DF80F3094F82D31D2
:103580008DF8103094F82E318DF8113094F83031D8
:103590008DF8123094F831318DF8133094F83231BF
:1035A0008DF81430B4F84C31ADF81530B4F834312E
:1035B000ADF8173094F83A318DF81930B4F8363147
:1035C000ADF81A30B4F84831ADF81C3094F84A31EF
:1035D0008DF81E30B4F84E31ADF81F30B4F85031CC
:1035E000ADF8213094F852318DF8233094F82B3116
:1035F0008DF824309DF807308DF825309DF808307F
:103600008DF82630FF238DF8273017F002FA0AB024
:10361000BDE8F081FF083D002DE9F04F466895B008
:103620000546894630880E21FDF7F8FD0D21044638
:103630003088FDF7F3FD2F78804605A9484617F03E
:1036400033FA96F88E0037BB322113F0F7FC82462E
:1036500094F8C53083B302AA04F5AC7104F1F40008
:103660000EF09EFC96F88F90B9F1000F40F05A8151
:1036700002F080F80B0429D41A223221284617F0D0
:10368000B7FD322386F88F30284617F08DFD484667
:1036900015B0BDE8F08F30280CBF4FF02A0A4FF06C
:1036A000000AB8F1000F05D098F812727A1E57423E
:1036B0005741CDE74746CBE702ABD4F8F500D4F845
:1036C000F910B4F8FD2003C31A80CBE794F8C13099
:1036D0000BB92F22D1E7BAF1000F01D05246CCE747
:1036E0000DF1140C0DF1300AD5F804E0BCE80F0020
:1036F000AAE80F009CE807009DF814308AE807004C
:1037000003F03F0394F81221934213D194F8F4305C
:10371000012B0FD194F8133163B9BDF81530BEF801
:1037200088209B1A1BB2002BB8BF5B429BB2B3F53B
:10373000804F01D31E22A0E7BDF818309DF8172056
:103740007A4942EA032202F18073A3F5FA7323F067
:103750007F438B42EED8BDF81A309DF81C1043EA27
:1037600001439A42E6D8DEF81C209A42E2D9099930
:10377000BDF81D30BDF8222021F07F419DF82100C9
:10378000FFF752FE0028D5D0BDF82920BDF827301C
:10379000012A3ED1002BCDD1BDF81F30002BC9D05E
:1037A0009DF84B3003F00F02042A01D90F2AC1D132
:1037B0004F2B03D903F0F003F02BBBD19DF82BB0B6
:1037C000BBF1070FB6D89DF82D309DF82CA01846F8
:1037D000019317F07EFC0128ACD1019B082BA9D8DE
:1037E000BAF10F0FA6D8504617F073FC8246FFF7C8
:1037F0003BF9437853459DD394F8081158460EF091
:10380000EDF8824596D302A80EF086FC20B9482236
:1038100033E7002BC0D18DE7BDF8272047F6FE73B4
:103820009A421BD89DF82D309DF82BB00193FFF7DD
:103830001BF92022824600210CA819F06FFB3C4B9B
:10384000524659460C930CAB94F8080114F0CDFB8A
:1038500020B10199686814F0E0FA08B920220CE759
:10386000B8F1000F05D098F8123213B10FB90C223D
:1038700003E73C23BDF81820204686F88F309DF8DA
:10388000173043EA02239DF81C20C4F82C31BDF800
:103890001A3043EA0243C4F83031BDF82230A4F8AC
:1038A00036319DF8213084F83A319DF820209DF87A
:1038B0001F3043EA0223A4F83431059BC3F30F23DE
:1038C000A4F83831099BC3F31703C4F848319DF8B5
:1038D00028209DF8273043EA0223A4F84E310A9BA2
:1038E000C3F30F23A4F85031079BC3F30F23A4F8AD
:1038F0004C319DF82D3084F853319DF82E3084F8EA
:1039000054319DF82B3084F852319DF82C3084F8D6
:103910005631696814F04EFA064904F1A80017F010
:103920004AFAB1E64FF00109B1E600BF0B073D00CE
:1039300000040400F37C01002DE9F04F466889B0D3
:1039400005460F4696F88E0014F0C7F9002800F0DF
:1039500002810E213088FDF761FC02A90446384639
:1039600017F018F99DF8083094F8122103F03F037E
:10397000934214D194F8F430012B10D194F8133100
:103980006BB96968BDF80920B1F88830D31A1BB249
:10399000002BB8BF5B429BB2B3F5804F14D343F208
:1039A0001E3300221E21A6F814313223A6F8C620A9
:1039B00086F88E302846FFF741F96B68002083F8BF
:1039C000430109B0BDE8F08FB4F83831D21A1304BE
:1039D000E5D4BDF80C309DF80B20604842EA032284
:1039E00002F18073A3F5FA7323F07F438342D6D8A4
:1039F000BDF80E309DF8100043EA00439A42CED83D
:103A0000C9699942CBD9D4F82C118A42C7D3D4F8CA
:103A100030219342C3D89DF81830BDF81680BDF808
:103A2000149048EA03489DF81300B4F84C314A4614
:103A30004146FFF7F9FC0028B1D0BDF81130002B4A
:103A4000ADD09DF81930072BA9D894F80871184605
:103A500094F852B1394601939DF81AA00DF0BEFFBB
:103A60003946009058460DF0B9FF009A019B8242FA
:103A700095D1B7FA87F718467F0939460DF0AEFFA2
:103A80003946009058460DF0A9FF009B834286D826
:103A9000504617F01EFB012881D1BAF1080F3FF6FE
:103AA0007EAFD4F8483198453FF679AFB4F8363157
:103AB0004B453FF674AF9DF81A10686814F0ADF9E5
:103AC000024650B943F220332021A6F8C600A6F8DA
:103AD0001431322386F88E306CE7029B2046BDF805
:103AE0000C20C3F30F23A4F838319DF80B3043EAC0
:103AF00002239DF81020C4F82C31BDF80E3043EAA3
:103B000002439DF81820C4F83031BDF81430A4F8F1
:103B100036319DF8133084F83A31049BC3F30F23F8
:103B2000A4F834319DF81A3084F853319DF81B30D5
:103B300084F854319DF8193084F85231BDF81630AC
:103B400043EA0243C4F848313E2386F88E30696860
:103B500014F030F931E7012033E700BF0B073D00D7
:103B600043682DE9F04F93F88F2089B005460F4642
:103B70003F2A40F0AA80002683F88F6017F025FBCB
:103B80006B680E211888FDF749FB03A904463846E7
:103B900017F057F89DF80C3094F8122103F03F030A
:103BA000934240F09E8094F8F430012B40F09980CD
:103BB00094F81331002B40F094806968BDF80D2013
:103BC000B1F88830D31A1BB2002BB8BF5B429BB24E
:103BD000B3F5804F80F08580B4F83831D21A1304E1
:103BE0007FD4BDF810209DF80F30624843EA0223CD
:103BF00003F18072A2F5FA7222F07F42824270D8FD
:103C0000CA699A426DD9D4F82C21934269D3D4F869
:103C10003021934265D8BDF818309DF81780BDF863
:103C2000159048EA03289DF81400B4F84C314A4630
:103C30004146FFF7F9FB002853D0BDF81230002BA6
:103C40004FD09DF81A30072B4BD894F808711846BE
:103C500094F852B1394601939DF81BA00DF0BEFEB9
:103C60003946009058460DF0B9FE009A019B8242F9
:103C700037D1B7FA87F718467F0939460DF0AEFEFF
:103C80003946009058460DF0A9FE009B834228D883
:103C9000504617F01EFA012823D1BAF1080F20D898
:103CA000D4F8483198451CD8B4F836314B4518D86B
:103CB0009DF81B70686839469DF91C8014F0ADF8BA
:103CC000C0B976B1002220210DE093F88E303B2B55
:103CD0004DD117F060FA6B68002283F8432101266A
:103CE0004EE700221E212846FEF7A8FF002009B05B
:103CF000BDE8F08F3EB994F85331BB42F1D194F94D
:103D000054314345EDD1BDF8102028469DF80F30C1
:103D1000002143EA0223BDF81820C4E94B33059B78
:103D2000C3F30F23A4F836319DF8143084F83A31E8
:103D3000BDF81230A4F83431039BC3F30F23A4F869
:103D400038319DF8173043EA0223BDF81A20C4F831
:103D500048319DF91C30A4F85221012284F85431D5
:103D6000FEF76CFF6968204614F024F8BEE70120D6
:103D7000BDE700BF0B073D00F8B50D46074640F60E
:103D80007A4CBDF81860A81FBDF81C1080B26045C1
:103D900015D8941FA4B264458CBF0020012087B9B8
:103DA000194C247984B188B96FF45067EC19062C4A
:103DB00004D86FF450641419062C07D9F8BD0020FC
:103DC000EDE797F87D40EDE70028F7D0954218D849
:103DD00003FB0111B1F5FA7F13DCA6F10A0340F6EB
:103DE00076409BB283420CD8104614F010FC42F28D
:103DF000107341435E43B6EB410F8CBF012000209E
:103E0000DCE70020DAE700BF18130020304BF0B5E4
:103E1000B0F868700C4611461A88B0F8666085B034
:103E200097425D8828BF1746964228BF16461B2E2C
:103E30002ED0B5F5A47F2DD040F6480301AA9D42AF
:103E400028BF1D4614F052FCBDF80A30BB4228BF03
:103E50003B46E380BDF80C30AB4228BF2B462381A4
:103E6000BDF80630B34228BF33466380BDF8083042
:103E7000AB4228BF2B46A380FF232370E3881B3B64
:103E80009BB2E02B08D940F2EE613920FCF7DCFC54
:103E90001B2FCED105B0F0BD63881B3B9BB2E02B3E
:103EA00002D94FF4DE61F0E7238940F64812A3F50A
:103EB000A4739BB2934202D940F2F261E5E7A38872
:103EC000A3F5A4739BB29342E4D940F2F461DCE71A
:103ED00018130020F7B5002304460E461746CDE917
:103EE00000336846FDF7D4F908B1002016E0009DC4
:103EF000A542F6D03046EB1C14F083FB3946AA7875
:103F000015F0D2FF0028ECD005F10A036A7A04F11B
:103F10000A01607A15F0C8FF0028E2D003B0F0BDB6
:103F2000054A134692F8202053F8211B11F8030B81
:103F3000C0F3801015F0B8BF9818002010B5032109
:103F40000020FDF76BF9044670B90321FDF72AF94B
:103F5000044620B940F291313920FCF775FC034B3F
:103F600093F95C1018F061F8204610BD181300207A
:103F70002DE9F04F87B007468846008804A915F060
:103F8000E1FF064600287CD1059D95F87531002B90
:103F90006DD0B8F1020918BF4FF0010995F88F30C4
:103FA000232B95F8E13043EAD3030CBF89F0010AD3
:103FB0004FF0000AD90702D4BAF1000F63D0B878E5
:103FC0009DF8104008B901F0DFFB8DF80B00F87880
:103FD00008B901F0D9FB2E4B8DF80C00D3F800B0D6
:103FE000BBF1000F0BD00AF0010320460DF10B02CC
:103FF0002946009303ABD847044600283AD19DF8E0
:104000000B20B2B39DF80C309BB3164695F87D207B
:1040100032B1B20703F0020337D5B3B302231E4611
:10402000FF2285F82D21B9F1000F28D195F82C2118
:1040300002F0FF041ABB85F82C8103A985F82E61D4
:10404000284685F82F31BB88A5F83031BA78ADF80D
:104050000E308DF80C20FA788DF80D2016F031F81E
:10406000002385F82D31204607B0BDE8F08F81464A
:1040700094E70924BAF1000FF5D00023C6E73A24EB
:10408000EEE70446EFE71A24EDE70924EBE700BF6B
:10409000E000002038B515F006FF002501F0DAFE3B
:1040A000224C01F07FFB16F061FE03F033FC02F0BE
:1040B000FFF802F0D5F8012001F018FB1C4B1D4A57
:1040C00029461D601C4BA4F854501A601B22DD8346
:1040D0009A80F9221D8483F822501D77174B228382
:1040E0005868174A1B8922601422E06104F12400F9
:1040F0002384A576A580A57518F010FF012342F250
:10410000107204F13A0084F8243084F83930C4E99C
:104110000A2218F0DAFA04F1440018F0FBFA00223F
:10412000002384F86850C4E9182338BD1813002010
:10413000C000002003021B00D4170020EB70030016
:104140001B004801064B41F64C521B215A61197461
:10415000C3E9022241F288329A61FFF79BBF00BF98
:10416000D417002073B5344D0446AB68C363334B9A
:104170001B79003B18BF012380F87D30304BC361B1
:1041800017F06BFD064601F0F5FA8306297C53BF54
:104190001B236B88AA881A46A4F86630294BA4F81A
:1041A00068201B6884F84410A4F846601BB194F999
:1041B0007C1020889847244B1B6813B12349208822
:1041C00098472349204615F07CFF01236386214B45
:1041D0001B6813B10021208898471F4B1B6813B13F
:1041E0000021208898471D4B1B680BB120889847F9
:1041F0001B4B1B680BB120889847AB8804F1140057
:104200006A8869780333033201919BB2297892B2AC
:10421000009104F11801FDF79BF8636923B940F29E
:10422000C5613920FCF710FBA36913B940F2C661E0
:10423000F7E7002002B070BDD4170020181300204B
:1042400000093D00D0000020C800002020130020FD
:10425000F2170020E4000020D4000020D800002045
:10426000DC0000202DE9F34104460E4617F01EFF46
:10427000002800F0B080204617F097FF30B1B6F864
:104280000130013B7F2B01D9122004E0204617F0BA
:1042900090FF18B90C2002B0BDE8F081204617F05D
:1042A0006EFD0028F6D1204617F0A9FE074600282B
:1042B000F0D1204605F046FA0028E5D042F210730E
:1042C000B6F80180F178204603FB08F817F058FF94
:1042D00004213078FCF7A2FF054606213078FCF770
:1042E0009DFF2DB140B141F67B413920FCF7ACFA7E
:1042F00008B3054690F8BD70384E3368DBB14035E1
:10430000284617F07AFBB0B1284617F058FB90B951
:104310003FB1334B28461B68984760B141F68F4147
:10432000E3E730493A46336828464969984710B16F
:1043300041F69441D9E7204617F02FFF014640B9D6
:104340004246204604F06EF9002842D041F69D41D5
:10435000CBE7204617F029FF40B902210DF10600F6
:10436000FCF7E8FE054658B90D2094E7204617F003
:104370002FFF0028F1D11C4B1B79002BEDD183E7D7
:10438000002115F0F5FDBDF80630204629462B80AA
:1043900017F049FF204617F01BFF88B9216A204615
:1043A00017F020FF01462846FFF7DCFE424629466B
:1043B000204604F037F9024620B14FF4E65194E765
:1043C0000121F0E7084B9B6D1BB105F59171284663
:1043D000984700205FE742205DE700BFC40000204F
:1043E000CC000020D417002018130020024B1B68BB
:1043F00003B118470C207047C0000020034B5A88B7
:1044000002801B7883700020704700BFD417002003
:104410007FB5837806461A2B08D8042B04D9334A73
:1044200022FA03F3DB0705D412251AE0292B01D069
:104430003B2BF9D13088B0F5706FF5D2694615F095
:1044400081FD88B9019B93F8202102F0FF05C2B9D4
:10445000B27883F82121FF2283F82021684616F0E4
:104460005EFC284604B070BD09213088FCF7D6FEFA
:104470000446002837D002A9B0F8AC0115F062FD5F
:1044800008B10C25EDE70821B4F8AE01FCF7C6FE33
:1044900020B940F62E213920FCF7D6F903781BB954
:1044A00094F8C831032BECD1039B93F83621002AF2
:1044B000E7D194F8F02102F0FF05002AE1D1B4F829
:1044C000B021A3F8382194F8B82183F83A21027D6D
:1044D00083F83B21B27883F83C2184F8F021FF2255
:1044E00083F83621BDE70225BBE700BF2000380472
:1044F0000188A1F11B039BB2E02B0CD8428844F247
:104500004810A2F5A4739BB2834204D8034B002049
:1045100019805A8070471220704700BF181300207E
:10452000034B1A885B88028043800020704700BFDD
:104530001813002038B50278447802F0010302F025
:10454000020254EA030101D1112038BDBAB98578BD
:10455000002DF9D0002B18BF002400E01D46204696
:1045600014F0B7F80028EFD0284614F0B2F800286D
:10457000EAD0054B00209C77DD771884E5E7002B17
:10458000ECD000242546EAE7D417002013B50088B4
:10459000694615F0D7FC18B10224204602B010BDC0
:1045A000684614F0AAF90028F6D0019890F8323144
:1045B0000BB13A24F1E790F8DA3003F0FF04002B56
:1045C000F7D190F8D1309B0706D1FF2380F8323124
:1045D000684616F0A4FBE0E70249D23016F0EEFB85
:1045E000DBE700BFA9B70100F7B5067804460F4620
:1045F000EF2E03D91226304603B0F0BD90F901200A
:104600004378002AF6DB82789207F3D113F010008A
:1046100048D19D0603F0030241D5002AEAD11907CB
:104620004FD503F06702012AE4D1627A013A062AE3
:10463000E0D8A27A032ADDD813F0040102D1023AAD
:10464000012A03D8E27A012AD4D811B9A27C032A1C
:10465000D0D8227D002847D0012ACBD1237E012B40
:10466000C8D8002850D06378D90703D500F0E4FFFC
:10467000002850D06378227D03F01803082B5AD10C
:10468000022A48D103213046FCF7C8FD0546002820
:1046900057D017F074FB00285FD00C26ABE7032A35
:1046A000BDD1A7E713F0600FA4D103F00702052ADC
:1046B00005D003F00F010D22CA40D2079AD51D077D
:1046C000B3D42179E278E57942EA0122617942EABC
:1046D0000142A17941EA0521257A41EA05418A4250
:1046E00088D81F2AA1D885E7022A04D103F06F03D6
:1046F000092B7FF47FAFA37D013B022B3FF67AAFFE
:10470000E37D0F2BAAD975E701F03EF8820707D4A5
:10471000237D022B01D111266DE7A37D022BFAD058
:1047200001F032F843079ED4237D032BF3D0A37D01
:10473000032B98D1EFE7022AA4D0237F002BA1D02E
:10474000E9E703213046FCF72DFD0546002843D05C
:10475000224B93F95C1017F068FC0021304617F0EB
:1047600066FF28BB284617F015FD21463870E07417
:10477000284605F041F8E37E0646002B3FF43BAFA8
:1047800000287FF438AF0246E96C6846FCF7C0FEAB
:104790003246E86C012111F0D2FEE96C6846042231
:1047A000FCF7B6FE32463146E86C11F0C8FE22E74F
:1047B000403017F022F90028D4D0637813F0330F7B
:1047C0007FF418AFA67D2846296A17F00BFDFDF788
:1047D000A1FE8642C6D060E707260CE7181300202A
:1047E00030B502798BB00346042A4FD84088B0F523
:1047F000804F4BD8264900241144ADF800408DF875
:1048000008408A7C4D7B42F010028DF8244042EA39
:104810004502CD7D097F42EA850242EAC10269462E
:1048200002F01F028DF80020BDF80020ADF809202D
:104830001A888DF80E00000A8DF80B20120A8DF8E8
:104840000D408DF80C208DF80F008DF810405A7B2C
:10485000D3F807008DF811205A79059002A88DF839
:1048600012209A798DF81320B3F80B209B7BADF8BA
:1048700018208DF81A307F238DF81B304FF001136C
:10488000CDE90734FFF7B0FE0BB030BD1220FBE7D7
:10489000EB7003000278034672B1427862B142883D
:1048A0001A2A09D982881A2A06D90068034A106090
:1048B00000209B889380704712207047D4170020F7
:1048C00002680020014B9A60704700BFD417002097
:1048D0000378A3F10A02112A9BBF024A002012208A
:1048E00013747047D4170020014B187600207047CE
:1048F00018130020014B5876002070471813002031
:10490000024B1B6803B1184711207047E8000020D4
:1049100008B5052000F0F6FE06F02EFD014B024A18
:104920009A6508BD181300200D3E000037B50446F7
:1049300000F020FF080403D40C24204603B030BD4F
:1049400025886946284615F0FDFA044608B1022478
:10495000F3E7684613F0D1FF0028F8D0019B93F8E5
:10496000E3201107E8D593F8E520D209E4D093F8C5
:10497000932032B393F894301BB30E212846FCF7F2
:104980004DFC90F8C020002AD6D0B0F85A209207EB
:1049900012D590F87A20002ACFD11122002180F878
:1049A0007B20482218F0BAFAFF2280F8C22006497C
:1049B000723016F0FAF9C0E7019BFF2283F841211B
:1049C000BBE72F24B9E700BF757701002DE9F04F51
:1049D000B0F8008091B004460EA9404615F0B2FA36
:1049E00020B10226304611B0BDE8F08F0EA813F0BA
:1049F00084FF0028F5D01D229DF838100F9801F093
:104A000089FF002840F081810E214046FCF706FC1A
:104A1000054690F8C33003F0FF06002B40F0778185
:104A20000F9B93F8E320100740F1998093F89320AF
:104A3000002A00F06E8193F89430002B00F0698119
:104A400095F8C030002B00F08A80617904F10D07E1
:104A5000A0780D91217BE27D0139237994F806E05D
:104A6000C9B294F8079094F808A0022994F809B004
:104A700097BFDFF8A8C2FF218C449CF8211094F85E
:104A80001AC0CDF828C094F819C0CDF824C094F805
:104A900018C0CDF820C094F80AC0CDF81CC094F816
:104AA0000BC0CDE9051C0D99CDE903AB009139464A
:104AB000CDE901E912F004FF002800F02C81E37831
:104AC000012B00F22881A37AA3B995F8EF3013F0F7
:104AD000010F00F02081FDF7C7FF237E814601937F
:104AE000237B0093E37A6279217912F085FF40B944
:104AF000112677E7012BEED195F8EF3013F0020F76
:104B0000E7E7237E05F148000193237B0093E37AD6
:104B10006279217912F070FF0028E9D0A27A02BBF5
:104B200095F84B3013F0020FE2D005F1F40013F0CA
:104B30007BFD20B195F81211A3789942D8D1E37E7C
:104B4000D90705D5012A13D1B9F81230DB06CFD524
:104B50000D214046FCF762FB13F06FFD68B10C2697
:104B600040E7012AE1D195F84B3013F0010FDBE764
:104B7000002AEDD1B5F85A30E8E7A37885F812316C
:104B8000D4F80D30C5F8F5307B68C5F8F9303B89AD
:104B9000A5F8FD30E37D85F8FF30237985F80031F5
:104BA0006379FF2B85F8043117BFA37985F80101DC
:104BB00085F80131E07985F80201237A85F803311F
:104BC000637A85F80531237B013BDBB2022B97BF6B
:104BD000524AFF239B1893F8213085F80631E37A77
:104BE00085F80731A37A85F80831237E85F80931E5
:104BF000637E85F80A31A37E85F80B3100F0C0FD95
:104C000003680722B5F85C1013F400631CBFE37E51
:104C100003F0010385F81131B9F8140012F092FB8A
:104C200095F811318046002B52D0A37A072223B980
:104C3000B5F86410B9F8160003E0B5F85E10B9F8DD
:104C40001C0012F07FFB0922B5F860100746B9F886
:104C5000180012F077FB8146FDF770FF0222B5F8CD
:104C6000621012F06FFBB8F1050F35D808F101089A
:104C700008EB88084FEA48085FFA88F8052F85F89E
:104C80000E8131D8013707EB87077F00FFB2B9F1FA
:104C9000080F85F80F7197BF204B96234B4493F86C
:104CA000243085F80C3120B301280CBF14232823AD
:104CB00085F80D31FF2285F8C320E378012B1AD146
:104CC00085F8F43085F813310F9B83F8422189E68B
:104CD0000722B5F85E10ADE7B8F1060F0CBF4FF034
:104CE00050084FF09108C9E7062F0CBF50279127B5
:104CF000CDE70A23DCE7012300210EA885F8F43074
:104D000085F81311FEF768F96CE645266AE63A263F
:104D100068E62F2666E6122664E600BFEB70030005
:104D200073B504460DF0F8F900285FD00EF0B6FE1A
:104D3000304A92F8683053B12F4ED2E91835C31A71
:104D400061EB05059E424FF00003AB4150D20123B9
:104D500082F868300023C2E91801CDE900336846C3
:104D6000FCF796FAD0B100204FF40033CDE90003F0
:104D70006846FCF78DFAC8B10023CDE900336846D8
:104D8000FCF786FAC0B100224FF40033CDE90023CE
:104D90006846FCF77DFAE0B1002005E0009B93F83F
:104DA0004531002BDBD03A2002B070BD009B93F858
:104DB0004531002BDCD0F6E7009890F8E530590635
:104DC000DDD500F59072234630F8801B13F055FDB9
:104DD000D5E7009890F8E5305B06D9D500F59072DC
:104DE000234630F8801B13F048FDD1E71220DBE7A3
:104DF0000C20D9E7181300203F420F0003882DE94B
:104E0000F7439FB204460B80B7F5706F04D31226A8
:104E1000304603B0BDE8F0836946384615F092F895
:104E2000064608B10226F3E7684613F066FD00283F
:104E3000F8D00E213846FCF7F1F9A37890F812214A
:104E400005469A42E3D1F43013F0EEFB0028DED0A1
:104E5000032ADCD8B4F803100029D8D0B4F80930FC
:104E6000012B09D0B4F80520002AD0D0B4F80730BF
:104E7000002BCCD09A42CAD8237BE27ADFF884C1D7
:104E800042EA0322637B42EA034202F18073A3F207
:104E9000E24323F07F436345B9D8E07BA37B43EA39
:104EA0000023207C43EA004303F18070A0F2E2403B
:104EB00020F07F406045AAD840F2712041439142E2
:104EC000A5D39942A3D3637C072BA0D8A37C013B35
:104ED000032B9CD8207D0F2899D895F8089116F0BF
:104EE000F8F88046607CB9FA89F149090CF076FD42
:104EF00080458CD3637D053BDBB2F92B87D9A37D3D
:104F0000053BDBB2F92B82D938460D21FCF786F937
:104F100013F093FB0746002872D1FDF7A5FD8046EC
:104F2000207D16F0D6F895F84930834201D20D263F
:104F30006EE705F148034246617C95F8080113F0DD
:104F400054F80028F3D0B4F80920B4F8031093B251
:104F50001FFA81FE012B50D0019B40F27128B4F85A
:104F60000570D3F81CC0B7F57A7F38460CF1FF33D3
:104F700028BF4FF47A7008FB0E33B3FBFCF3013308
:104F8000B4F807C0B3F57A7F28BF4FF47A739BB2A9
:104F9000634528BF6346BB4238BF3B46A5F818119E
:104FA00047F6FE71A5F81E218B42227BA5F81A0157
:104FB00028BF0B46A5F81C31E37A43EA0223627B43
:104FC00043EA0243E27BC5F82031A37B43EA022394
:104FD000227C43EA0243C5F82431637C85F82831FA
:104FE000A37C85F82931E37C85F82A31237D85F877
:104FF0002B31FF2385F814310AE738463B46CDE7CD
:105000000C2605E71E043D002DE9F84F0D2104464E
:1050100040F6FF70FCF702F9002840F08C822278FD
:10502000531E022B02D91220BDE8F88F6378FF2BA4
:1050300006D1B4F81B104D07F5D4022A0CD10FE0AD
:10504000002BF0D0191FC9B2FA29ECD9022A05D0D9
:1050500003F0FD010129E6D0032A01D0022BE2D0A2
:10506000A378032BDFD8E378013B022BDBD826792A
:10507000012ED8D86379062BD5D8A379013B022B12
:10508000D1D8E379013B032BCDD8627A237A43EA66
:105090000223A27A43EA024340F2E1429342C2D998
:1050A000B4F80B20617BD2B140F2712042439A42A6
:1050B00015DA0129B7D894F90E2002F17F03DBB28B
:1050C000932B01D97D2AAEDDE37B502B1BD8312BEE
:1050D00007D80A3BDBB21E2BA5D8864A04E020295C
:1050E000E8E7323B844ADBB222FA03F3D8079AD5C9
:1050F000237C502B1CD8312B08D80A3BDBB21E2B4B
:1051000091D87C4A05E0912BF2D08CE7323B7A4A69
:10511000DBB222FA03F3D90785D5637C3C2B00F27E
:10512000C4801D2B07D80F2B0DD0142B0BD07AE782
:10513000912BF2D077E71E3B6E4ADBB222FA03F3E3
:10514000DA077FF570AFA37C0A3BDBB21E2B3FF67C
:105150006AAF694A22FA03F3DB077FF564AFE27CAA
:105160000A2A3FF660AF40F21743D340DF077FF5CE
:105170005AAF94F814A0BAF1070F3FF654AFA37DCD
:10518000053BDBB2F92B7FF64EAFE37D053BDBB28F
:10519000F92B7FF648AFA37E002B3FF444AFB4F861
:1051A0001B90564B19EA030F7FF43DAF94F81D8016
:1051B000B8F1680F3FF637AF19F0010F04F11E0781
:1051C0007ED0A57F6B1E472B3FF62DAF3A460023BE
:1051D00012F8011F01334E29DBB23FF624AF9D4286
:1051E000F6D10135EDB219F0040F05D07B5D002B2F
:1051F0003FF419AF0135EDB219F0080F05D07B5D12
:10520000042B3FF610AF0135EDB219F0100F10D09E
:10521000504617F805B00CF0D5FB0CF0F7FB013841
:10522000C0B2834503D9BBF1FF0F7FF4FCAE01355B
:10523000EDB219F0200F1CBF0835EDB219F0400F88
:105240000CD07A5D6B1C402A3FF6EDAEFB5C1BB1C7
:10525000443B4A2B3FF6E7AE0235EDB219F0800F22
:1052600005D07B5D022B3FF6DEAE0135EDB219F4C1
:10527000807F07D07B5D072B02D9802B7FF4D3AED4
:105280001135EDB219F4806F02D0012E3FF4CBAE90
:10529000A8457FF4C8AEFDF7E7FB2279C378054641
:1052A0001341DE072CD41120BEE6782B3FF44BAF20
:1052B00004D8502B3FF447AF642B37E7962B35E7E4
:1052C00038460CF029FF00283FF4ADAE94F82830A2
:1052D000012B3FF6A8AE0AD194F82930012B3FF6F6
:1052E000A2AE94F82A30023B062B3FF69CAE0D2569
:1052F00079E700BF010410400104004002FAFFFFFB
:105300002378032B02D06378032B02D12B79D807A3
:10531000C9D56379002B49D1AB79002BC3D0A379D0
:10532000012B05D06A7A013B42FA03F3D907BAD5BB
:10533000E2796B789A42B6D8A98AE07B13F0A0F99B
:105340000028B0D0E98A207C13F09AF90028AAD06E
:10535000627C2B8B322A4FD033D81E2A49D02BD8CF
:105360000F2A3DD0142A3FD0A27C6B8B0A2A4CD046
:10537000142A4ED0207DE37C00284DD1002B92D101
:105380000CF020FBAB7883428DD32179207D0CF08B
:1053900025FB6B78834286D32379002B40D0012BE9
:1053A00047D043F27D513920FBF74EFA013B012BE8
:1053B00094BFEB792B7AB0E7282AD5D1C3F3C00389
:1053C00014E0642A1ED006D83C2A18D0502ACBD12B
:1053D00013F0400F06E0782AC6D1C3F3002305E09E
:1053E00013F0010FC0D15EE7C3F34003002BBBD124
:1053F00059E7C3F38003F9E7C3F30013F6E7C3F3F8
:105400004013F3E7C3F3C013F0E713F0010FB1D17A
:1054100049E713F0020FFAE7AA7A9A42B0D942E7B5
:10542000A27DFF2A08D001239340EA7A134203D1D8
:1054300039E7E27DFF2AF7D1B4F81B3013F0C20F31
:105440007FF431AFDA0707D494F82830012B03D169
:105450006B8A5B077FF527AF40F6FF7011F021FDE7
:105460000E21054640F6FF70FBF7D8FE064648B908
:105470000E2140F6FF70FBF795FE482200210646FC
:1054800017F04CFD15B943F2A3518CE7B4F81B306B
:1054900006F1F50813F0010F0DD1D4F81E30314696
:1054A0002846C6F8F5307B68C8F804303B89A8F870
:1054B00008300CF0C7FD0023C5F88480A5F8C8317A
:1054C00086F8123185F80D32AD61032385F812326A
:1054D0002946204608F04AFA05F1180617F072FB33
:1054E000B4F80B3040F271221BB35343AB6400237A
:1054F000A5F84C206B85FDF739F92862304602F09B
:1055000077FA00287FF490ADB4F81B2012F4806283
:105510000ABF617A0246237A304611BF40F6340151
:1055200043EA0123A17A43EA0141BDE8F84F02F0C2
:1055300065BA1346DAE70C2076E500BF08B50378B4
:10554000012B08D0022B0BD07BB9D0F80120084BDF
:105550009A61002008BD4078BDE80840FDF7D6BA42
:10556000B0F901000CF030FFF3E71E20F2E700BFB6
:10557000D417002008B504F0C7F803F051F9024829
:10558000BDE8084004F0AAB88413002008B514F060
:1055900088FC074B184603F58471FCF7ABFB02202F
:1055A00010F048FF0020BDE8084010F043BF00BFE6
:1055B0008413002008B50122064B83F80A2204F068
:1055C000ABF805F067F8FFF7E1FFBDE8084001F030
:1055D00095B800BF8413002010B5064C064904F5A9
:1055E000037014F0CEFA04F504700449BDE81040CD
:1055F00014F0C7BA84130020EC000020F40000204F
:1056000010B5094C094904F5037014F0BAFA04F511
:105610000470074914F0B5FA04F505700549BDE8B2
:10562000104014F0AEBA00BF84130020FC0000202C
:10563000040100200C010020014B93F80A0270477E
:105640008413002010B52E20084C00F05BF83020A9
:1056500000F058F804F50370054914F092FA04F5C7
:1056600005700449BDE8104014F08BBA8413002083
:10567000140100201C01002038B5094C0D4601F032
:1056800019F8D4F80C02C4F8045114F072FAFEF7B9
:1056900059FD01F0B1F9012384F8183238BD00BF7B
:1056A00084130020014B93F81802704784130020E4
:1056B00010B50D4CD4F8100214F05BFAD4F81402B3
:1056C00014F057FAFEF7E6FC202000F02FF82F2008
:1056D00000F02CF8262000F029F8292000F026F808
:1056E000002384F8183210BD84130020014B83F886
:1056F0001902704784130020014B93F81902704778
:1057000084130020C208074900F0070001238340EA
:10571000885C03438B5404490B78934238BF13468B
:105720000B707047580000209E1500200F4B012180
:1057300010B503EBD002C40800F0070001FA00F036
:10574000195D21EA0001195509490B78A34205D1D9
:10575000002012F8014914B100B10B7010BD002BEC
:10576000FAD0013B0120DBB2F3E700BF5800002074
:105770009E150020014BD3E900017047580000201E
:105780000048704760000020054B1868C0F3C02235
:10579000C0F30020400040EA820040F00100704762
:1057A0005800002008B50FF069FB0023074A32F8C3
:1057B0002310814205D302EB83029378044A1370CD
:1057C00008BD01330C2BF2D10023F7E71C71030055
:1057D0009F150020024B1878072828BF0720704724
:1057E0009F15002010B54468238884F88311A4F81D
:1057F000843194F87400FCF79DFE84F8860194F8D7
:105800007500FCF797FE054984F8870104F5BD7023
:1058100015F0D4FA002384F82C3110BD299C010026
:10582000406807490388A0F8763190F86C3080F81A
:10583000783190F86D3000F26D10037315F0B8BA3E
:105840003F9C01002DE9F04389460979456885B000
:1058500099F8058001F00701044695F88E7008F06C
:1058600007084B1E08F1FF320B4002EA08021343FF
:1058700095F88F20242A3DD105F18F060BBB4046B9
:1058800014F01EFA002840D095F8743098423CD0AD
:1058900095F82E2118EA020F13D0222F35D095F853
:1058A0006D2018EA020F30D10138013B574AC0B2CF
:1058B000DBB21044032B007922D81A4413798342B7
:1058C00023D995F82C31012B60D11E212046FFF7FA
:1058D00089FF222F5ED16368182283F811210A22E2
:1058E00083F88E2093F8CA30002B4BD14FF43171DE
:1058F000AE2008E0222F40F0868005F18E06BDE73D
:105900004FF40F710620FAF79FFF084614F0D8F9FC
:1059100038B195F87530834203D095F82F3119428C
:10592000CFD0B9F8067003AB2846424600933B46F9
:1059300014F0D3F9656800283FD195F82C31012B7C
:1059400038D1B5F8883005F5287295F87410B5F897
:10595000300114F021FA074640BB01462046FFF70C
:1059600041FF3770636803F18F02964202D1002233
:1059700083F88F20636803F18F0296423FD120465F
:1059800015F023FC002005B0BDE8F083002385F866
:105990002C319EE700232046337015F016FC1821A9
:1059A000204605B0BDE8F04315F03BBC282385F840
:1059B0008E30D7E785F82C01D4E7B5F88830A5F804
:1059C000A072013FFF1A47F6FD73BFB29F4206D98E
:1059D0002823204685F8B13001F0C2FCCAE795F8CB
:1059E0008F300E2B02D00B3B012B01D82A23F0E77E
:1059F000BDF80C30A5F8A23226233370BAE7002296
:105A000083F8CA20BEE70220BDE700BF4C71030047
:105A1000064B002283F850204FF6FF72A3F8522065
:105A2000A3F85420A3F85620704700BFA215002009
:105A3000064BB3F85220824201BF002283F8502067
:105A40004FF6FF72A3F85220704700BFA215002046
:105A5000014BA3F854007047A2150020084B4FF6E5
:105A6000FF72B3F85210914206D193F85020012AE8
:105A700004D00360012070470023036000207047BA
:105A8000A2150020074B93F85020012A1BBF0120CC
:105A9000B3F85420002083F8500018BFA3F8522018
:105AA000704700BFA2150020014BA3F856007047B5
:105AB000A2150020074B0246B3F85610B3F8520067
:105AC000884205D193F8500018B101201360704747
:105AD00000207047A21500200A4BB3F85210B3F80B
:105AE0005620914201D0002070474FF6FF72A3F874
:105AF000522093F85020002AF5D00022012083F88C
:105B000050207047A2150020064BB3F85210B3F88E
:105B10005620914203BF93F85000B0FA80F040093C
:105B200001207047A215002050B90A4A01201346EF
:105B300003F8010B0868C2F801008A889A80704750
:105B4000012805D1034B0A68D8719A608A889A8126
:105B5000704700BFFA15002050B90B4B187888B178
:105B6000D3F80120B3F805300A6001208B8070471C
:105B7000012806D1044BD87920B19A689B890A6024
:105B8000F3E70020704700BFFA15002010B9044B5E
:105B900018787047012806BF014BD879002070475C
:105BA000FA150020F7B58A8800238DF80600ADF8B5
:105BB000042008680B4A8DF807300146147802F576
:105BC000A872019DD8B2844201D8082007E052F89B
:105BD000087F01335668AE4208BF8F42F2D103B04E
:105BE000F0BD00BF08160020084B0146002230B56A
:105BF0005C7803F20113D0B2844201D8082004E09B
:105C000013F8015F01328D42F5D130BD0816002036
:105C1000F8B52D4C63782218013B92F80251DBB2A3
:105C20008342637030D01A010101961C8F1C2644F8
:105C3000274406F1100C56F804EB664547F804EBD0
:105C4000F9D1823282312244214402F1100652F805
:105C5000047BB24241F8047BF9D1E118221891F893
:105C6000026182F8026106267343704303F585736F
:105C700000F58570E618E35827182350B388BB80D9
:105C800091F83A3182F83A312846FFF7ADFF0828FB
:105C900018D12378013BDBB29D42237012D02B3305
:105CA00005F12B0204EBC30304EBC20293E80300EB
